:020000040027D3
:10B0000038B50025DFF8C84320E0A078904204BF9F
:10B0100022784D2A03D1607800F096F80546002189
:10B02000E1700EE0E06A40F634029042F7D2636AC3
:10B030009DF800201A54401C8842E06201D105208E
:10B04000E070A0789DF800104840A070684600F0BD
:10B050002BFA00283BD0E3789DF80000A16A092B69
:10B060000246EED8DFE803F0080F141707061F2288
:10B07000272CE6E7C9E7D5E7FE2AE2D10120E070F8
:10B080000020E062DDE7A0620020A0700220D7E788
:10B0900020700320D4E700296070D0D0FF2914BFAE
:10B0A00004200620CCE7A0620720C9E701EB0221BB
:10B0B000A1620820C4E701EB0241A1620920BFE7B9
:10B0C00011EB0261A1620CBF05200420B8E7280043
:10B0D00018BF012032BDF8B5BE4DBF4C29680094A1
:10B0E0008868B0F1A53F26D10A69CB68BB4F022022
:10B0F0009A42B6414FF0000CF60FC7F800C0C7F8EF
:10B1000000C00BD1B64EB34204D3401E04E05B1C1A
:10B110000028F7D11E787E609342F8D178683A68AB
:10B120000B6842EA002292B2934204D10422083111
:10B13000684600F076FB2A689068A04201D10120A1
:10B14000F2BD0020F2BD00002DE9F14F82B0DFF822
:10B1500080929DF80830D9F8242000200190002723
:10B160005B1E8046032B16469E481DD8DFE803F081
:10B170001D89B602202109F1040000F06DFB0120B9
:10B1800030707770B770F770307177710820B071D8
:10B19000F77137727772B072F772377306F10D017B
:10B1A000D9F82400091A0191A9E01578547805EB23
:10B1B0000425947805EB0445D47805EB0465331D2C
:10B1C0001C7893F801A093F802C01E1D04EB0A241A
:10B1D000DB7804EB0C44891B04EB036402EB010AEB
:10B1E0006119491EB5F5001F00916BD3814269D2E8
:10B1F000544567D3A5F500104FEAD02B0DE009F1B7
:10B2000004004FEADB010122405C02FA04F409F178
:10B210000402044354540BF1010B0098A0F50010F4
:10B22000C00A584513D309F104004FEADB010BF0C3
:10B230000704405CE040C007EDD44FEACB2000F5A6
:10B24000001000F0E1FA0028D9D04FF00108CAF14F
:10B25000040414F0030405D0FF22214606EB0A0083
:10B2600000F0FEFAB8F1000FA24448D1BAF1000F85
:10B2700045D052462946304600F0D3FA00283ED049
:10B2800020E015785178947805EB0125D17805EB0D
:10B29000044505EB0165331D1C7859789A781E1D0D
:10B2A00004EB0124D97804EB0244B5F5001F04EB4C
:10B2B000016407D36119491E81423CBF40F6350045
:10B2C000844202D34FF0010819E00CB36119491E02
:10B2D0000978FF2908BF641EF7D019E03D4D3E4CA8
:10B2E0002868009400F108010422684600F099FAE9
:10B2F00028688168A1420CBF01274FF00708019A16
:10B300009DF80800414600F00EF83846BDE8FE8F73
:10B3100022462946304600F0D7FAD9F82400361ADA
:10B32000A6190196EBE77FB5144600228DF80020A0
:10B33000FE25631C8DF8045001AAFF2B32BF537009
:10B34000FF2555704D258DF8065040F08000FF2BED
:10B350008DF8070002AD0AD313711D0C8DF80A5049
:10B36000180A1B0E8DF809008DF80B3003AD05F897
:10B37000011B01A82D1A012006E09DF80010135CA6
:10B3800059408DF80010401CA842F6D30020104E02
:10B3900007E0726A9DF80010125C51408DF80010B1
:10B3A000401CA042F5D3294601A800F054F800281B
:10B3B000F9D02CB1706A214600F04DF80028F9D080
:10B3C0000121684600F047F80028F9D07FBD000051
:10B3D000004000203040002005A0A00514700D4062
:10B3E0001C01200000B0270038B5002000F0E4FA6E
:10B3F0004FF4007000F000FB3E4C3F4D204600F043
:10B4000069FB41F6FF71204600F096FB01212046C2
:10B4100000F099FB00220221284600F099FB02214E
:10B42000284600F03BFD354A0121284600F0C4FBC8
:10B430000121284600F030FD00F0A8FA0146602303
:10B440004FF4E132204600F00DFB2046BDE83240CB
:10B4500000F033BB35E0F8B50C4629490A684B6863
:10B4600040F63206934208BF354604D09A423ABFAE
:10B47000F51A5519D51AA54201D20020F2BD1A4677
:10B480000025204B06E0475D9F54521CB24228BF66
:10B4900000226D1CA542F6D34A6000F012F8204647
:10B4A000F2BD144800F027BB38B50446114D2846BC
:10B4B00000F021FB20B1284600F026FB207001207F
:10B4C00032BD38B50F4C0E4D08E02868401C28608E
:10B4D00040F63201884224BF00202860286869684D
:10B4E000884205D0215C034800F018FB0028ECD10D
:10B4F00031BD000000C0004000900D4000410D40F3
:08B500009C5000206848002067
:10B80000000800207DC0270038B5124A1468542370
:10B810004FF400611A689047FFE700F00CF82846E3
:10B8200032BD70B50B4B1C6858252E68B04700F030
:10B8300002F8284670BD054604F00C00FFE70549F4
:10B840000A681306FCD422F00C021043086070470B
:10B850000000000008300D40002200F005B8000094
:10B8600062F30F2262F31F42401810F0030308D066
:10B87000C91A1FD3DB0748BF00F8012D28BF20F8E5
:10B88000022D130030B414461546103928BF20E9A4
:10B890003C00FAD8490728BF20E90C0048BF40F80F
:10B8A000042D890028BF20F8022D48BF00F8012D83
:10B8B00030BC7047C91818BF00F8012DCB0728BF4E
:10B8C00000F8012D7047000062B38B0708D0521EAC
:10B8D00011F8013B00F8013B00F024808B07F6D102
:10B8E000830740F0208000BF103A07D330B4B1E89E
:10B8F0003810103AA0E83810F9D230BC530724BFF2
:10B90000B1E80810A0E8081044BF51F8043B40F823
:10B91000043BD20724BF31F8022B20F8022B44BF8E
:10B920000B7803707047083A07D3B1E80810083A5B
:10B9300040F8043B40F804CBF7D25307E4E700009B
:10B9400070B50B00354D03D12B6843F400132B6009
:10B950002C68334B1C4008B944F08074002914BF94
:10B960004FF480360026344322432A604FF6FF749A
:10B97000686800F48030864218BF002C05D0102083
:10B9800000F032F86868641EF3E770BD254801686E
:10B99000002001F0070107290DD8DFE801F00405B8
:10B9A000060708090A0B0FE010E011E012E013E0AF
:10B9B00014E015E01C48704718490A6822F4E06258
:10B9C00042EA00220A6070471848704718487047DA
:10B9D000184870471848704718487047184870470B
:10B9E00018487047000000000138FDD170477047CB
:10B9F000154908200860FEE710B50FF25001FFE777
:10BA0000C0F3032251F822200124136800F00F0034
:10BA100004FA00F01843106010BD000000200D4033
:10BA2000F8FFFEFE04200D4090D003000048E8011E
:10BA30000024F40000127A0000093D0080841E00FA
:10BA400040420F0020A1070074200D4008200D4047
:10BA500018200D4028200D4038200D4048200D4072
:10BA6000A8200D40F8B504460E4617461D4600F0C6
:10BA700031F8B6EB071F04F1300005D2016841F040
:10BA8000200101607F0803E0026822F020020260CA
:10BA9000F600B6FBF7F0401C400804F124028109CF
:10BAA000116000F03F0004F12801086004F12C004F
:10BAB0000560002044F8180FF1BD00F12C010A6860
:10BAC00042F010020A6040F2013150F8303F0B435F
:10BAD0000360704700F118010A681307FCD400F1F5
:10BAE0002C010A6822F010020A6050F8303F114918
:10BAF0000B4003607047183000680009FFE700F052
:10BB0000010080F00100704700F118010A68D306B7
:10BB100001D4006870474FF0FF30704710B500F156
:10BB2000180213689C0602D40160012010BD002099
:10BB300010BD0000FEFCFFFF50F8382FFFE722EA9F
:10BB400001010160704700F6C87001607047000095
:10BB5000F0B500230FF280240FF29C250FF2B826D7
:10BB60000FF2D42721FA03FC5FEACC7C20D5DFF862
:10BB7000D0E170450CD0DFF8CCE170450BD0DFF898
:10BB8000C8E170450AD0DFF8C4E1704509D00BE088
:10BB900054F823C00AE055F823C007E056F823C044
:10BBA00004E057F823C001E0DFF8A4C1CCF800207E
:10BBB0005B1C082BD6D3F0BD10B50023DFF8804105
:10BBC000A0420CD0DFF87C41A04224D0DFF87841BD
:10BBD000A04240D0DFF87441A0425CD07AE0022954
:10BBE00008BF012376D0042908BF022372D0082998
:10BBF00008BF03236ED0102908BF04236AD0202970
:10BC000008BF052366D0402908BF062362D08029DB
:10BC100060D107235EE0012908BF08235AD002291A
:10BC200008BF092356D0042908BF0A2352D0082987
:10BC300008BF0B234ED0102908BF0C234AD020295F
:10BC400008BF0D2346D0402908BF0E2342D08029CB
:10BC500040D10F233EE0012908BF10233AD002292A
:10BC600008BF112336D0042908BF122332D0082977
:10BC700008BF13232ED0102908BF14232AD020294F
:10BC800008BF152326D0402908BF162322D08029BB
:10BC900020D117231EE0012908BF18231AD002293A
:10BCA00008BF192316D0042908BF1A2312D0082967
:10BCB00008BF1B230ED0102908BF1C230AD020293F
:10BCC00008BF1D2306D0402908BF1E2302D08029AB
:10BCD00008BF1F23136010BDF0B500230FF27804D6
:10BCE0000FF294050FF2B0060FF2CC0721FA03FC15
:10BCF0005FEACC7C20D5DFF848E070450CD0DFF857
:10BD000044E070450BD0DFF840E070450AD0DFF822
:10BD10003CE0704509D00BE054F823C00AE055F828
:10BD200023C007E056F823C004E057F823C001E021
:10BD3000DFF820C0CCF800205B1C082BD6D3F0BD68
:10BD400000900D4000A00D4000B00D4000C00D401F
:10BD500000400D4080400D4080400D4084400D402B
:10BD600088400D408C400D4090400D4094400D4067
:10BD700098400D409C400D40A0400D40A4400D4017
:10BD8000A8400D40AC400D40B0400D40B4400D40C7
:10BD9000B8400D40BC400D40C0400D40C4400D4077
:10BDA000C8400D40CC400D40D0400D40D4400D4027
:10BDB000D8400D40DC400D40E0400D40E4400D40D7
:10BDC000E8400D40EC400D40F0400D40F4400D4087
:10BDD000F8400D40FC400D4000400D4004400D4037
:10BDE00008400D400C400D4010400D4014400D40E7
:10BDF00018400D401C400D4020400D4024400D4097
:10BE000028400D402C400D4030400D4034400D4046
:10BE100038400D403C400D4040400D4044400D40F6
:10BE200048400D404C400D4050400D4054400D40A6
:10BE300058400D405C400D4060400D4064400D4056
:10BE400068400D406C400D4070400D4074400D4006
:10BE500078400D407C400D4030B5CB4300F5806408
:10BE6000D50725684CBF0D431D40256000F5846053
:10BE7000920747BF0268114301681940016030BD55
:10BE800004460D460222FFF7E7FF29462046BDE89B
:10BE900038400022FFF720BF38B5F1E738B5044637
:10BEA0000D460222FFF7D8FF29462046BDE838405C
:10BEB0000822FFF711BF000010B56FF07F44204645
:10BEC000441E20B1FFF7EDFA0028F8D0012010BD84
:10BED00010B500F035F816490820086000F038F871
:10BEE000FFF782FAFFF7E8FF10B9FFF7F4F850B94F
:10BEF000FFF7B0FAFFF784F80028F9D00D4CFFF7F0
:10BF0000A9FA641EFBD10C480168486900F004F8E6
:10BF1000BDE81040FFF76CBD01B40849086001BCE2
:10BF2000D0F800D04FF0FF3E406800477047000057
:10BF300008300D40444404003040002008ED00E08B
:10BF400080B500F015F800B10120C0B202BD0000BC
:10BF500080B50122C0210548FFF7BEFEBDE80840BC
:10BF6000002200210120FFF7EBBC000000C00D40C3
:10BF7000EFF3108072B6704719E050F8042BD30726
:10BF800044BFA9F101039A18091F0023042942F8AC
:10BF9000043BF9D25FEA817C134604D54FF0000CD4
:10BFA000A2F800C09B1CC90744BF0021197050F8BB
:10BFB000041B0029E1D1704730B50168846842183C
:10BFC000416802EB5103C9070BD54C4409E012F953
:10BFD000011B12F8015B002904F8015B05D5491C1F
:10BFE000F9D19A42F3D10C3030BD491EF1D5F8E7B2
:10BFF00010B5074979441831064C7C44163404E0E6
:10C000000A68081D114488470146A142F8D110BDB5
:10C01000080000002400000061FFFFFF7010000016
:10C02000344000200000000091FFFFFF5C00000092
:10C030001C0000000040002000F00BF8002801D098
:10C04000FFF7D6FF0020AFF30080FFF741FF00F0BD
:10C0500002F80120704700F001B80000074638469A
:10C0600000F002F8FBE7000080B5AFF30080024A61
:10C0700011001820ABBEFBE726000200AFF30080E2
:10C08000AFF30080FFF7D8FFDC000334400020F856
:06C0900000031C0120006A
:0CFFD400000000000000000000B8270042
:020000040020DA
:10000000D473002011EE210041EE210045EE2100C5
:1000100049EE210049EE210049EE210000000000D8
:1000200000000000000000000000000049EE210078
:1000300049EE21000000000049EE2100B5EB21004F
:1000400049EE210049EE210049EE210049EE210050
:100050000000000049EE2100F1C2200049EE21001D
:1000600049EE210000000000000000000000000038
:10007000000000000000000049EE21000000000028
:10008000000000000000000049EE210049EE2100C0
:1000900049EE210049EE210049EE210049EE210000
:1000A00049EE210049EE2100CD492000334A2000CD
:1000B00049EE210049EE210049EE210049EE2100E0
:1000C00055EF21008949200049EE210049EE210029
:1000D00049EE2100000000000000000000000000C8
:1000E0000000000000000000000000000000000010
:1000F00049EE21000000000049EE21000000000050
:10010000FFFFFFFFFFFFFFFFFFFFFFFFFFFFFFFFFF
:10011000FFFFFFFFFFFFFFFFFFFFFFFF141D0000BA
:10012000FFFFFFFFA5A5A5A500002000FFAF27004A
:100130000000200010B5DFF8B80B0FF2B961C84C11
:1001400041650FF2F97181650FF27551E1620FF2AD
:10015000355121630FF6290161630FF65501A16343
:100160000FF2F971E1630FF2C13121640FF2B55161
:1001700041640FF20D6181640FF27551C1640FF695
:10018000A9010165206908B102F08DFBDFF8B40B0D
:100190000B49A0600B22082020730020206181F809
:1001A00020002075002104F1150002F0C5FB04F1C8
:1001B0002000BDE810400B22002102F0BDBB000072
:1001C000C44100203EB504460520E082032020758E
:1001D0006068401E6060411E616094F83A100170D2
:1001E00094F83A0010B14FF6FF7121876068411E04
:1001F0006160218F090A01706168208F087004F125
:100200002F01207AC01C2072684602F0D0FDDFF872
:10021000F809C38C03228DF8082003216A46204682
:1002200001F0DEFC050004BF204600F0B2FE2846C7
:100230003EBD70B50D46044661680498160A01F883
:10024000016D01F8020C01F8012CDFF8BC09428DA8
:10025000120A01F8032C408D01F8040C180A01F869
:10026000050C01F8063D227A606861608218521A16
:100270002272287ADFF82C1C03280CBF01200020F2
:10028000E0820B220920207504F1240002F03CFBDF
:100290004FF6FF732A460321204601F0A1FC05001A
:1002A00004BF204600F075FE284670BDDFF8F81B3D
:1002B000897A082981B0A8BF072101700078C0069B
:1002C000000E01B0704700002DE9F04706460F46CA
:1002D000904602F073FD0025DFF8CC9BD9F8004072
:1002E000B0F1010A6AEB0A0A4FEADA7A09E0F61F6E
:1002F000411D304602F05BFD54F8084C761E103567
:100300007F1EF8B268B10AE0607E410605D56068DC
:100310004178C1F381010329E9D054F8084C002C3D
:10032000F2D1BAF1000F18BF02F044FD02F046FD11
:10033000421E9241D9F80000D20F2C46E8B1436822
:100340005D78C5F38105022D14D1457E690609D576
:100350009B7906F80139641C43685D7906F80159F8
:100360007F1E07E0037E9D0604D5012588F8005016
:10037000FBB213B150F8080CE0E70AB102F01AFD25
:100380003470701EBDE8F0872DE9F84384B00D4647
:10039000002180468DF8001091460DF10100FFF715
:1003A00085FFDFF864783E7B86194136F6B2304629
:1003B00002F0F4FA04004ED0A01960600020207210
:1003C0003A7B6068114649424618B968304602F0E7
:1003D0009BFA9DF801106A46701EFFF775FF002119
:1003E0007E4A0170137879789B0143EAC11343EA8E
:1003F000091343F00F0300F8013C48EA051100F827
:10040000021D227A616860608A18121A0020227226
:10041000E08220758DF80C000B22DFF8E81B04F158
:10042000240002F071FA9DF8000018B1E18A41F051
:100430000801E1824FF6FE71788D8842ACBF03213E
:100440000221002301AA204601F0CAFB0028204611
:1004500002D002F0B5FA002005B0BDE8F08300003C
:10046000884F0020F8B5074602F0A8FC461EDFF8CA
:10047000380A0468B641F60F00250EE0617E0806D2
:1004800009D57968606801F057FB20B1607E00F003
:10049000BF006076254654F8084C002CEED11DB103
:1004A000687E40F0400068761EB1BDE8F14002F081
:1004B00081BCF1BD2DE9F8438046894602F07EFCFF
:1004C0000026471EDFF8E0090568BF41FF0F002442
:1004D0000AE02C46617E207E41F0100140F0800051
:1004E0006176207655F8085C9DB1687E0106F9D5E5
:1004F0006A684946404601F03BFB0028F2D0002CD8
:10050000E7D0207D012804D16068017841F0100116
:1005100001700FB102F04EFC14B100F0C7FC0126CF
:100520003046BDE8F28300002DE9FC41002500952E
:1005300002F044FC00F04BF80EE054F8088C2A4618
:100540002146384602F006FB2146684602F0BEFA14
:10055000B87A411E4446B972CCB1607E010605D519
:10056000608A401E608280B20028E6D0254654F89A
:10057000084CF1E7FFF776FF607E410759BFF02096
:100580006070E9216170204600F0E3FB18E00EB1D5
:1005900002F010FCB87A98B1DFF86C16487B0F288F
:1005A0001EBFDFF8281B91F82000002808D1DFF8D3
:1005B0003C4C204602F0B5F83021204602F098F875
:1005C000684602F09EFA0400D4D1BDE8F381DFF85A
:1005D000007B3C68461EB641F60F7047F44E002083
:1005E00070B50546FFF73EFFDFF8BC48DFF8186638
:1005F000A06C80470128F08D08BF401C6882A07A5B
:10060000002804BF717B0F2908D1DFF8E05B284682
:1006100002F087F83021284602F06AF802F0CEFB9B
:10062000A17A00F02AF8A17218B1BDE8704002F07A
:10063000C1BB70BD38B50446DFF86C58607E00F071
:10064000EF0060762046FFF70DFF2146284602F0B6
:1006500070FA02F0B3FBA97A00F00FF8A97208B1A2
:1006600002F0A8FBDFF8A005417B0F2904D1BDE80B
:100670003240082001F0A8B831BD401E8041491C1D
:10068000C00F704710B5DFF880150446487886B073
:10069000A0B1012100208DF800108DF8010000F0BC
:1006A0003AF8616808788DF80A0004F10F010DF13D
:1006B0000B0001F0EBFB684602F08CFC06B010BDAD
:1006C00010B50446FFF77EFDDC2818BFDD2808D0F2
:1006D000E42818BFF32804D0DE281CBFDF28DB285D
:1006E00005D101462046BDE8104001F073B810BDA9
:1006F00010B586B0044606208DF8000000F00BF817
:1007000004F10F010DF10A0001F0C0FB684602F090
:1007100061FC06B010BD04F11C010DF1020002F0F5
:1007200046BB000038B5044604F1380584B0A8780B
:1007300020B304F12F0101A802F039FB6248017DCA
:100740000388009103228DF80C2001A92A882046F5
:10075000FFF76FFD0146DC2918BFDD290BD0E42926
:1007600018BFF32907D0DE2918BFDF2903D0E829F5
:1007700018BFDB2902D1204601F02CF805B030BDAE
:100780002DE9F843804602F019FBE725DFF84079B0
:100790003C68461EB6414FF00009F60F02E0A14644
:1007A00054F8084C9CB1607E0106F8D5207D0128E4
:1007B00002BF94F83D1098F804008142EFD14A46F8
:1007C0002146384602F0C6F9B87A411EB9720EB118
:1007D00002F0F0FA3CB12046FFF744FEF02120463B
:1007E00000F0F8FF002529464046BDE8F44300F03C
:1007F000F1BF000038B5054684B06878F32818BF0B
:10080000DF2822D0E82818BFDB281ED0284600F0B9
:1008100029F8040018D1287CB0B105F11101092094
:1008200000F087F980B100F015F8A97A009101A9CC
:100830002B89FFF7FEFC0446F32C18BFDF2C03D0F6
:10084000E82C18BFDB2C03D16C70284600F076F83A
:1008500005B030BD02218DF80C104FF6FF72ADF8D7
:100860000420704738B504460025A07A0B381328B9
:10087000207B28BFE8251028A8BFE82501DA0F282B
:1008800005D0DFF86C140A7A110758BFE825617BA0
:10089000884202D20F2918BFE825DFF86C03418D8A
:1008A0004FF6FF72914208BFEC25242001F091FF22
:1008B000DFF89C1C086120B12422211D02F024F8DD
:1008C00000E01A25284632BDA64C002070B504462B
:1008D000CD4D207ADFF8706B6873607A85F82C0054
:1008E000E07AE870A07A307002F0BEFC307838B15F
:1008F000211D502002F0E4FDA11DE12002F0E0FDE9
:10090000DFF8C817012081F8200004F10D01687B91
:10091000DFF83C5C0F2814BF0120002028750B2253
:1009200005F1150001F0F0FF04F1180105F12000B8
:10093000BDE870400B2201F0E7BF000010B504468F
:10094000607820B9DFF8081C0869FFF7BFFF2C2189
:1009500021702046BDE8104000F08CBF10B5DFF8D4
:10096000F01B0446086918B100220A6101F09BFFE0
:10097000082020702046BDE8104002F02BBB00008C
:10098000DFF8481791F82000002800D1704780B5A3
:10099000DFF85818087D50B99B48C27890F82C10A1
:1009A000407BFFF7F1FC10B1BDE80240F1E201BD70
:1009B00030B5054689B0A87B0124410721D5E98ED1
:1009C00005F11C00FFF776FDD8B9DFF8A41C4879C3
:1009D000012808BF002414D00B2205F10F0106A83E
:1009E00001F092FF00F08EFDACBF0321022106A8AA
:1009F00030220190009205F11C02EB8E012001F0E3
:100A0000A1F910208DF8080005F11C010DF10A0074
:100A100002F0B5F9E88EADF814008DF8164002A882
:100A200002F0D8FA09B030BDDFF81C1A08780028A7
:100A300018BF01F06EBB7047AD4800F15401016270
:100A4000DFF8301C416200F1440181620FF22001A5
:100A50000164DFF8241C0166DFF8581C8167DFF8A9
:100A6000581CC167018941F00201018170470000F3
:100A700003047104020460041104700402040204FB
:100A800001040204100461040004140463047304E8
:100A90007204620443040004130406040004000406
:100AA000040412040004000400040004510464005F
:100AB00000040004000444040004000400040004D2
:100AC0006504000435048104640005040004830403
:100AD0000004000002461146032000F010BF01464A
:100AE000082000F0EEBE1CB5DFF8E4450FF25920F7
:100AF00060640FF23D20A06406E0204602F001F899
:100B00000090684600F0BFFF21680029F5D16068B9
:100B100038B1201D01F0F5FF0090684600F0B3FFEA
:100B2000F5E72060A072E07220730FF2C950E06216
:100B300013BD38B504460FF2C050055D284601F0DC
:100B40002DFF20B1411941600021017232BD022008
:100B500001F024FF58B10FF2C451095D01701A2150
:100B600041700146DFF86805007C01F038FF002085
:100B700032BD831DC907DBB20DD50A2193FBF1F10C
:100B80000A2202FB1131C9B229B10A335B1A0529C5
:100B9000A8BF0A330B331328ACBF14200620C31898
:100BA000DBB209330A2093FBF0F0C0B2704780B586
:100BB0004F48017A880704D502F00AFB10B10120E2
:100BC00002BD002002BD4A48017A880781B00CD5D9
:100BD000B54A907A38B9DFF8F414C86F28B1407E6E
:100BE00010F0800002D0012000E0002001B070472A
:100BF000AD49DFF87C3A0A7B99788A4238BF01F028
:100C0000CDBE002070470000804C002080B500F071
:100C10003AFF002002BD31B582B0017BA24C21B168
:100C2000012926D0032926D037E0DFF8445C687B11
:100C30000F281EBF2E498A7A032A02D00298E16B40
:100C40008847029995F83A00887314200299087031
:100C5000201D029901F03AFF02F0B0F8217BFFF766
:100C60000CFD217308B102F0A5F8202000F0ACFDC6
:100C700037BD1520EAE70146087A70B14868401C84
:100C80004860029910F8012D4A73029AD07D00281D
:100C9000507B06D008B10A2813DB02A800F0F3FE4F
:100CA00037BD48B10A2807DA0FF25845137A2918D8
:100CB00011F8011C8B4204D0082804BF117A0829BE
:100CC000EBD11046017A4A1E02720299487B0A3023
:100CD00008700298417B491C4173B9E7DFF8F003C3
:100CE000C06C82B008B102B0004702B0704700008B
:100CF0004442002038B504460120207504F13C0030
:100D00004188638FE18204F130020179E176417913
:100D10002177C17984F820100178204600F060FF27
:100D2000050004BF204600F034F9284632BD00001B
:100D3000DFF8440C817A032901D12020704701207B
:100D400070470000C9172000417E41F00101417643
:100D5000704710B5027D017E012A06D10B0704D42D
:100D60004178BDE8104000F035BD4C06DFF8603337
:100D700004D54078196CBDE810400847012A03D11A
:100D8000090748BF30210BD441781B2908BF222115
:100D900006D000290CBF0FF278310FF28031895C48
:100DA00001700146BDE81040187C01F018BE70B516
:100DB000C64C0646E06F002872D03100DFF8AC5C0C
:100DC00004D01B2E05D1017D052953D0002242708D
:100DD00052E0E92E2ED1807E30B902F002FA18B12D
:100DE000E06F817D48072ED5EE2002F0B9FCE16F5F
:100DF000887EE8B18A7D530705D4401E8876BDE819
:100E0000704002F06ABD087E00F07F000876E06F57
:100E1000017D032903D1427E42F004024276ED2097
:100E200002F09EFCDFF8501BE06FCA6F904726E08F
:100E30004E7021E0E12E15D102F0D3F9D0B1E06F70
:100E4000817D480716D4E16FA87C8876E16F4A68F7
:100E5000287890702878401C28700120BDE87040E8
:100E600002F099BC1C2E05D10F490A6D9047002055
:100E7000E06770BDE06F4670E06FFFF76AFFE06FFC
:100E8000817D080605D5287E02F03AFAE87D02F059
:100E9000FEF90020E0671020BDE8704000F094BC2F
:100EA00070BD00009D4F0020044E00202DE9FC4144
:100EB00001F084FF854E441EA441F06FE40F00282A
:100EC0004FF000085FD1824FB86C80473D6840F01A
:100ED000100002E0A84655F8085C002D53D0697E4A
:100EE00001408142F6D142462946384601F032FEA1
:100EF000F567697E08062CD4F87A411EF9720CB1A8
:100F000001F058FFF46FE18A207AFFF732FE388152
:100F1000A07D010606D5E07E02F0F2F9F06F007FB9
:100F200002F0B5F9F26FD08AC10520D539890029C0
:100F30001CBF92F82000002811D090FBF1F082F83D
:100F40002100F06F10F8081F1329ACBF0221002107
:100F500003E0B87A411EB972D1E7817605E001203D
:100F600082F82100F16F81F82200032005E0107E55
:100F7000400800F0010080F00100BDE8F64102F0F9
:100F80000ABCBDE8F381002CFBD0BDE8F34101F0C1
:100F900011BF38B5044600F06FFD217EDFF8D006A2
:100FA0000A0704D4217D012908BF027800D04278C5
:100FB000474D2146284601F0E9FDD8B1696C20462D
:100FC0008847A07D41070ED401F0F8FEE97AFFF7CB
:100FD00054FBE97208B101F0EDFEE08AC1050FD4BF
:100FE000BDE8314062E7DFF890198A6F2046BDE81E
:100FF00032401047F12060702046BDE83240A8E63C
:1010000031BD0000A84F002050E738B50446DFF896
:10101000680900890021820704F1380303D49A7912
:10102000550748BFE82110F0600F03D19879820777
:1010300048BFE821DFF8A40B8279207A82421A792E
:1010400038BFE821002A02BF18780028F52107D010
:10105000080003D12046FFF74DFE0146080000D0EE
:1010600038E031BD0D21017001F0B4BF38B5044640
:10107000002020706070DFF8F815E08F0978144DBB
:10108000420704D4EA7A8A4204D3F12122E0AA7A00
:101090008A42FAD2C10510D594F84210052912DB14
:1010A00010F0050F0FD105F1240001F03AFB94F880
:1010B000421005F1240001F01BFB287C2146BDE80D
:1010C000344001F08CBCE821E0E70000C44100207E
:1010D000044E00202046BDE834407BE310B50446B2
:1010E0005C3080B201F05AFC18B100F15C0104726E
:1010F000416010BDDAE6000000464A4C44494943CD
:1011000039513A0002040201010101090200000004
:10111000303016181920231A1C1E300030301718D2
:101120001921301B1D1F3000DFF8080C0FF265116C
:10113000016000220FF2813141600FF2DD11816008
:101140000FF21521C1600FF2113101610FF2C521BB
:1011500041610FF29D2181610FF2B931C1610FF23E
:10116000094101620FF2594141620FF291418162DE
:101170000FF21921C1620FF2E90101630FF2CD01F3
:1011800041630FF2C92181630FF25941C163DFF856
:10119000A81B01640FF27D4141640FF2ED418164AF
:1011A000DFF8980B00F15C010A70CA7002220FF29E
:1011B000196140F83C1F01610271012101757047FE
:1011C000F8B502228DF800208DF8010008B14FF625
:1011D000FF71ADF802100B22DFF8641B01A801F0CB
:1011E00093FB684601F0F6FE05B000BD884F002075
:1011F00080B50A228DF801008DF800208DF80210CC
:10120000684601F0E7FE01BD3EB504460120E082DC
:1012100004F1320102202075684601F0B0FD6068DB
:10122000A38F94F83E10401E606001706A46207AD9
:10123000401C20728321204600F0D2FC050004BF30
:101240002046FFF7A6FE28463EBD0000DFF8202618
:1012500092F8351030204143DFF8700C01F048BAA5
:1012600030B5DFF80C46607B0F2893B006D02E21F6
:101270008DF80010684600F0FDFA09E000F0DEF895
:10128000608E1421B0FBF1F105F1340001F030FA69
:1012900013B030BD38B504466078010032D104F196
:1012A0003205297A02291CBF0329E82094F82F105F
:1012B0000B39132913D2010024D104F12F01E120AD
:1012C00002F0FEF804F13C01502002F0F9F8297A0E
:1012D000DFF89C05022904D12A88028408E0E8206E
:1012E00012E04FF6FE7101841630294601F05FFDD1
:1012F0000B2204F12401DFF8480A01F005FB204627
:10130000FFF782FF010006D0607017202070204692
:10131000BDE83240AEE231BD18B5DFF8204A94F89E
:101320005F0085B0A8B9012184F85F10012002F0A8
:10133000F4FB02A800F0F1FBDFF8342504F15400BF
:101340000121019000910321D38C02AA052000F015
:10135000F9FC06B010BD000010B500F0A9F8217826
:10136000202904BFEB20607000F0ECF844BF01F0CE
:10137000FB0180F85F1000F0E1F800D5EAE02A20D8
:1013800020702046BDE8104074E200007CB500F0FB
:101390008FF800F053F805F1440001F0C2F900F0B5
:1013A0006DF9ADF8001060688678300008D16946A4
:1013B000532002F085F804F11C014A2002F080F865
:1013C0000B2204F10F0105F1540001F09DFABDF864
:1013D00000103046FFF7F4FE95F85F00810703D553
:1013E00060780021FFF704FF002085F85F0073BDDF
:1013F00010B50446EB206070DFF8800B90F85F209A
:10140000900703D50021EB20FFF7F2FE4FEA04001E
:10141000BDE8104038B500F04BF800F00FF805F1CA
:10142000440001F07EF905F15C0000210170C170FB
:101430004FF6FF716078BDE83440C1E6DFF83C5BF1
:1014400005F1340001F06DB9F44E002010B50446EA
:10145000FFF7CEFFCCE0000010B500F029F8207AAD
:10146000002814BF0020EB20607000F06BF844BF30
:1014700001F0FB0180F85F1000F060F80BD501F07F
:10148000FD0180F85F1000F095F8ACBF012100214C
:10149000FFF7AEFE08E0C80706D52A202070EB2033
:1014A0006070204600F0E6F92046BDE81040D9E51E
:1014B0000446012002F042BB1CB50446DFF8BC0A1A
:1014C00090F85F1041F0020180F85F10012002F0F7
:1014D00024FB617879B900F015F8ACBF0321022133
:1014E00004F11000012201900092221DE3890520E1
:1014F00000F028FC6070607818B1BDE81C40002145
:1015000076E613BDDFF86803418D4FF6FE72914217
:101510007047000010B5FFF7CBFF2178202904BFEA
:10152000EB20607000F00EF844BF01F0FB0180F882
:101530005F1000F003F800D50CE010BD90F85F10CC
:101540008A077047DFF8340A90F85F104A0770473F
:10155000884F002001F0FD0180F85F1000216078C5
:10156000BDE8104044E6000038B5FFF7A1FFFFF7E3
:1015700065FF207A002814BF0020EB20607095F8EA
:101580005F00410744BF00F0FB0085F85F0095F85D
:101590005F0081070AD500F0FD0085F85F0000F0CC
:1015A00009F8ACBF01210021FFF722FE2046BDE86B
:1015B000324057E5A07B00F01000012860787047AA
:1015C00010B5FFF775FFEB216170FFF7BBFF44BF5C
:1015D00001F0FB0180F85F10FFF7B0FF00D5B9E71D
:1015E00010BD000010B500F010F82046FFF7E8FF2E
:1015F0002046BDE8104000F01BBD000010B500F013
:1016000004F82046BDE81040DAE70446DFF8EC0BAA
:1016100001F087B818B5044685B004F11C01DFF865
:10162000E00B01F099FB08B3EF2009218DF80100D0
:101630008DF8001000F022F8ADF802106068017912
:101640008DF80410207A082804D16168C8798DF8D3
:10165000050002E000218DF8051004F10F010DF1E5
:10166000060000F013FC684601F0B4FC06B010BDA3
:1016700044EF2100B44F002035012000606801785C
:10168000407801EB0021704700F043BDBA48DFF815
:10169000A41681613831C1610FF2200141630FF25C
:1016A00080018163DFF8601BC165018941F00101A0
:1016B00001817047E105200035062000010171011C
:1016C000010101011101010131010101010180014B
:1016D000100161013B00140063017301720162019A
:1016E00043010001130106013D013500040112010F
:1016F0000001000100010001040104013301330174
:101700003C01440132013600000100016501000185
:101710003500810100010501820183010001000003
:101720000302710230016002110270020102020222
:1017300002028002100261023A0041006302730259
:101740007202620243020002130238000002000229
:10175000040212020002000200020002040204025B
:10176000370037003C024402000239000002000248
:101770006502000235028102000205028202830234
:1017800000020000024611460220B8E00146062091
:1017900097E01CB5784C206810B1204600F073F932
:1017A0000021A172DFF8381B086858B102E06846D2
:1017B00000F069F9DFF82C0B007C01F03DF90028FE
:1017C0000090F4D113BD00000146DFF8180B007C37
:1017D00001F0FEB900B585B003780FF27C02D25C4F
:1017E0008DF800200B2A03D1417000F071FB31E02D
:1017F00082B30C2A29D11A2902D10020019024E0B9
:10180000019090F83D208DF80220C2680292028A71
:10181000ADF80C20827DD30648BF002204D4144AC0
:1018200092F83430827E9A1A8DF80E20427F8DF81D
:101830000F20827F8DF81020C27F8DF81120C08A82
:10184000C20544BF11228DF800208DF801106846B2
:1018500001F0C0FB05B000BD0C0E020B040B0A0723
:1018600008000F009748817A481E8041C00F7047DA
:10187000804C002038B5934A937A02F1300102F18E
:10188000300551F82330017801F07F01017003EB3E
:1018900041014C78214655F8211001B19472047829
:1018A00013F81430190902EB8102D16811B9BDE8AF
:1018B0003240F0E203F00F0351F82310BDE834404A
:1018C00008477CB505460FF28400405D0E4601F0E6
:1018D00065F804000CD0257000210FF27C006170C7
:1018E0003146425D201D01F00FF800F03BF873BD5A
:1018F0008DF800501A216846FFF76CFF73BDF8B5EC
:1019000007460FF24800C65D0D46304601F046F826
:10191000040012D02770002060702946A019606072
:10192000002020720FF23000C25D04F1240000F0AC
:10193000EBFF00F017F80020F2BD8DF800701A21BF
:101940006846FFF747FF1A20F2BD0000000559570F
:10195000515C1C202807020000011C181A18181CD2
:1019600024030000DFF87C09007C214601F037B831
:10197000DFF870190874704744420020F8B50E462D
:10198000B006504DDFF85C7919D41DE001F016FA6D
:10199000397B401E80414A1EC00F3A7308B101F0E6
:1019A00009FA20788DF800006C602046FFF762FF8E
:1019B0009DF8000015281CBF281D00F064F8381D94
:1019C00001F09FF80400E1D1300406D40AE0686019
:1019D000FFF750FF281D00F056F8387C01F02CF876
:1019E0000028F4D1F00602D52D2000F041F8F007D0
:1019F00002D5242000F03CF8B00702D5252000F0E5
:101A000037F8700702D5262000F032F8300702D5EB
:101A1000282000F02DF8700607D500208DF8010071
:101A20002C218DF8001000F025F8300607D5002095
:101A30008DF801002F218DF8001000F01BF82868A8
:101A400088B101F0BBF9401E2C6880410021C00F15
:101A5000296008B101F0AEF96C602046FFF70AFF7B
:101A6000281D00F010F80020F2BD0000A24C00205C
:101A70008DF800006846FDE612494A68824204BFBC
:101A800000204860704738B5040008BF02F0F4F841
:101A900001F094F9451EAD412168ED0F59B1094A95
:101AA0005368A1F108008B4204BF0021516000215E
:101AB000216000F0F8FE1DB1BDE8314001F07AB9B7
:101AC00031BD000044420020DFF8600B0FF2C53149
:101AD00041600FF2D13181600FF2CD31C160DFF88A
:101AE000501B01610FF2E9314161DFF8481B816150
:101AF000DFF8701BC1610FF20D7181630FF291412C
:101B0000C1630FF2ED4101640FF2815141640FF2A4
:101B100021518164002101707047DFF8901B0A8C0D
:101B20004FF6FE739A4204BF163101F028B9022223
:101B30000272098C0180704742784B78C2F38102AF
:101B4000C3F381039A4211D1022A09D142794B7918
:101B50009A4202BF80798979884207D10120704773
:101B6000032A03D1491D401D01F013B9002070471D
:101B700038B55478057A0023C4F38104AC4218D1F7
:101B8000022C10D154799579008804EB0524A4B275
:101B9000A0420ED1D078127900EB022080B28142AF
:101BA00007D1012305E0032C03D1511D01F0F1F809
:101BB0000346184632BD017ADFF8F02A022907D120
:101BC000128C0088824201D10120704700207047AA
:101BD000014602F1160001F0BFB8000044EF2100F9
:101BE0002DE9F84F90469946DFF8C02A98F808404A
:101BF00002F114060B064CBF4FF6FF77778A0546B5
:101C000001F07F018DF800104FF0000AA87D8106D9
:101C10004CBF082000202876A87D41074CBF8020BB
:101C20001020687602F13400A97DCB064CBF00215C
:101C30000178A976E98ACB0748BF4FF0200A090747
:101C400069682B7D48BF4AF0100A491E022B07DB4A
:101C50000B2B1CBF5B1E01F801394AF0030A01E09F
:101C600043EA0A0A407D012804D12B7A672BA8BFDA
:101C70004AF4805A9DF8000002284AEA803A07D1C7
:101C8000F08A000A0870F28A01F8012C891E0AE025
:101C9000032808D1A1F1070B02F13C01584601F0DD
:101CA00086F8ABF101019DF8000050B124B14F4519
:101CB00008BF4AF0400A04D03812087001F8017CCD
:101CC000891E022C4AEA842A09D1B8F80000000AC9
:101CD00001F80109B8F8002001F8012907E0032CF8
:101CE00005D1CF1F4146384601F061F8791E2CB16D
:101CF0004FEA1920087001F8019C891E287D4A1EB0
:101D000018B93078431C337002E0B07B431CB373C6
:101D100008704FEA0A40000E107002F801AD297AEF
:101D200068686A604118891A297200206870BDE8E5
:101D3000F28F0000A84E00207D2420004C4D002092
:101D4000A04D00202DE9F047099D8946074692469F
:101D500098462946FEF7EDFE1A2604001AD0089888
:101D6000E08227750B22294604F1240000F0CCFD07
:101D70004346524649462046FFF732FF064648B9D9
:101D8000FF1F012F03D8607E40F0200060762046C0
:101D9000FFF7FFF83046BDE8F0873EB5044604F192
:101DA0003C050121687800B105210420E1822075FD
:101DB00004F13001684600F0E2FF6068638F401E66
:101DC00060606A46297801700321207A401C2072E5
:101DD0002046FFF705FF050004BF2046FFF7D9F8AE
:101DE00028463EBD70B504460D460520207005F11D
:101DF0003A06F078A0706068296B416105F11C011A
:101E000000F0BDFF6068E98E4181317841740021A6
:101E100060680176C17305F10F016068193000F048
:101E200035F86168A87B8873686862680178918179
:101E3000437841EA032191818178C01CCB0918BF06
:101E40000123137411F0070201F0070118BF0122EA
:101E500001EB41015118C9B2084410F8011B21726D
:101E6000E060217A4A00490802F00E0201F03801D0
:101E7000891808446061297A6A685318834227BF29
:101E8000081A101800202072207470BD0B2200F078
:101E90003BBD0000704701780B29BCBF1821FFF73C
:101EA00099BC7047192195E438B5DFF8B05804465D
:101EB000286828B11921FFF78DFC2846FFF7E3FDBC
:101EC0002046FFF7D9FD2C6031BD0000904D002069
:101ED00030B5044689B02078DFF88458032808D04C
:101EE000052812D0182804D01E2818BF1F280CD08F
:101EF0001CE000208DF8180004F12F0103A800F069
:101F000056FF03218DF814100AE001218DF81810F6
:101F100003A804F12F0100F04AFF03208DF81400FC
:101F200000F02EF8E88CADF8160015E002218DF8CF
:101F3000181003A804F11C0100F039FF03208DF8EC
:101F4000140000F01DF804F10F01E88CADF8160044
:101F50000DF11900FFF79AFF0B208DF800000DF12D
:101F6000190061788DF8011004F10F01FFF78EFF61
:101F7000684601F02FF809B030BD00004C4D00203C
:101F80000221688DADF802008DF80A10704700003C
:101F900038B504466578280014D1DFF81017608F33
:101FA000CA8C904218BFE82504F13000FFF703FE09
:101FB00090B1002184F83D10280003D12046FFF79E
:101FC000ECFE0546280006D06570192020702046DA
:101FD000BDE832404EE431BD94F83D000028EBD01E
:101FE000DFF8801791F820000028E5D1E825EBE71D
:101FF00018B585B004218DF8041000F13001427845
:102000008DF80520428FADF810200DF1060000F08C
:10201000B6FE0DF10600FFF7CEFD20B100F02DF861
:10202000DFF83C07048401A800F0D4FF06B010BD1F
:1020300018B587B0044603208DF8040004F11C0194
:102040000DF1060000F0B3FE616808788DF80E000F
:1020500004F10F010DF10F00FFF718FF04F11C0050
:10206000FFF7A9FD20B100F008F8DFF8F4060484BA
:1020700001A800F0AFFF08B010BD4FF6FF74ADF837
:1020800000406946532001F01BBA000030B50546F8
:1020900091B06868DFF814464178480609D5E08CAD
:1020A000E98E884205D1DFF884150878D0B100F0B8
:1020B00030F808A9039102A82946FFF793FE2B20C8
:1020C0008DF8080002A8FFF7D5FBA07810B19DF8A5
:1020D000180028B105218DF8081002A800F07AFF39
:1020E00011B030BD94F830000028E2D005F11C009A
:1020F000FFF761FD0028DCD105F10F0001210190FF
:10210000009104F11602E38C03210620FFF71AFE6A
:10211000E6E700B585B009208DF80000EE218DF8C6
:102120000110684600F056FF05B000BD2DE9F041F2
:10213000054600F043FE441EA441E40F0DB101F03A
:1021400081F9DFF8685501F0EEFA05F1390600274C
:102150007078DFF8088601F0D3F83078DFF8CC64C7
:1021600001F095F8307801F07FF8E88C01F087F8FD
:10217000688D01F085F805F13C0001F083F808F165
:102180005C0050F8270000B180477F1C072FF6DB6A
:1021900000F0E5F9FFF7FDFA00207070FEF7A3FCF0
:1021A000FFF792FC05F12901522001F089F90CB1E9
:1021B00000F000FE0020BDE8F081DFF870040FF2AF
:1021C00069010162021D0FF23D3141620FF26D3172
:1021D00081620FF21511C1620FF2052101630FF246
:1021E000BD114163DFF87415CA6000F13802203078
:1021F00048610A610020088101F086BA804D002004
:10220000964C002070470000291120000722027020
:102210000A7A82708A7AC2704A6842600022027228
:10222000C969C1607047000038B50446DFF8385509
:1022300000206870207A0628A4BFE8216970607ABF
:102240000E2804DD217A032904D0E8206870207A62
:10225000032806D1DFF80415087AC1075CBFE8211E
:10226000697021462846FFF7D1FF6068800A28621E
:1022700005F12400617A0170E17A4170217B81705F
:10228000617BC170A17B01710A214171DFF81C14CF
:1022900091F83A2082710B22DFF8D004A86104F192
:1022A0000F010420287705F12B0000F02DFB697841
:1022B000002904BF607800280BD1A87808B1EA2172
:1022C000697001F05FF826202070042001F00FFCF7
:1022D00001E0292020702046BDE83240FFF7CABA4D
:1022E00054530020044E002078B5DFF87C440546A6
:1022F000A07885B070B994F829100A290AD001F0A5
:1023000087F8E16894F82920114401F80B0C207A31
:10231000401C2072216A94F8290049082162401C5F
:10232000C90784F8290002D4C1B21E29F2DBC0B269
:102330001E282CD004F12901E12001F0C1F802206F
:102340008DF810004FF6FF73A078ADF80830002824
:1023500018BF022803D1284600F020F81CE001280D
:1023600004F12B0207BF082080210720832101925E
:102370000026009602AAFFF7E5FCDB2818BFE52837
:1023800004D0F3281CBFDF28E82805D1607029207D
:1023900028702846FFF76EFA06B070BD38B5DFF832
:1023A000C843606804F1240101254A7905FA02F264
:1023B000904360603022A078032804D1DFF8A03376
:1023C00093F8355002E009788D406D1C554308B9EB
:1023D00001F01CF8294604F11000BDE8344087E103
:1023E000F0B5DFF884530446A87802281CBF012802
:1023F00005288FB03CD1002006A96870019168467D
:102400002146FFF7EFFC2E7A95F8250086421BD275
:10241000EF680BE07889BDF82210884204D106A944
:10242000384600F099FC78B9761E2437F0B20028BF
:10243000F0D12E7AEB682422564306A9981900F0B1
:1024400063FA297A491C2972DFF81423907828B19D
:102450009DF8101011B995F8250010B9684600F0E4
:10246000B9FD95F8250038B1297A814204D101E0FF
:10247000E820687000F040F80FB0F0BD7CB504466D
:1024800004F12400DFF8E0520178032904BF827AC6
:10249000032A2CD104F11C014A2001F011F86068D4
:1024A0000178427801EB0221ADF80010861C6946E4
:1024B000502001F005F83078717800EB0120ADF87C
:1024C000000069464B2000F0FBFFB61C3146E120BE
:1024D00000F0F6FF701C0178407801EB0021ADF8A8
:1024E00000105320694600F0EBFF002000E0E820D8
:1024F000687000F001F873BD292020702046FFF7B6
:10250000B9B9000010B5DFF8604204F1100000F026
:1025100008F900F054FF042001F010FBA178032912
:1025200004BF6078002804D004F12A01E12000F003
:10253000C7FF2046BDE8104000F04CBDF8B501468D
:102540006846FFF763FEFC218DF80110684600F035
:1025500041FD05B000BD01460720FFF7B2B9844830
:102560000021016041604FF47F018160C160002162
:102570000161704738B57E4C00202061206868B149
:102580004068A168884209DA01F0B3FB21684D6810
:10259000A842B8BF28464860206820612069616869
:1025A00031B118B14A684068824202DA216100E024
:1025B00040B12069A1684068884203DABDE8324032
:1025C00001F0BFBBBDE8314001F0E1BBF8B500F060
:1025D000F5FB674D441EA4412869E40F10B3A968B8
:1025E0004068814203DA01F047FB2869D0B101F06D
:1025F00080FB29694968884214D3002948BF01F04B
:102600003BFB2F69384600F08CF83E7BBF680CB16D
:1026100000F0D0FB3046B84700F0D0FB441EA44188
:10262000E40FE2E704B195E0F1BD0000F44E0020B4
:102630000B1020000910200070B505460C464C4ECA
:102640000DE06068316928188C4202D1002848BF2B
:1026500000206060002848BF01F00EFB2468002CB9
:10266000EFD170BD6510200070B5414E00F0A6FBA3
:1026700074683168451EB068AD414042FFF7DCFF29
:10268000B168ED0F05E060688842A4BF401A606041
:102690002468002CF7D1F06881421CBFB06001F0C3
:1026A0000FFBFFF767FF05B11EE070BD804C0020F7
:1026B00070B504460D4600F081FB461EB641286801
:1026C000F60F294630B1626843689A42A4BF0146BA
:1026D0000068F7DA0C6020602868A04208BFFFF7A6
:1026E00049FF06B100E070BDBDE8704000F062BB7C
:1026F00038B504460D4601F0FCFA451965602046E0
:10270000BDE834401A49D3E70A6801E011461A4689
:102710002AB113688242F9D10B6001207047002072
:10272000704770B5044600F049FB114E451E314616
:102730002046AD41FFF7E8FFED0F18B9311D2046E7
:10274000FFF7E2FF3069844208BFFFF713FF05B1CE
:10275000CAE770BDBDE8F14000F02CBB4442002048
:10276000804C0020C44100203C500020C9172000AC
:10277000C4420020604841F2FC72002181525F494E
:1027800008604FF42771018000F5277048F20401BA
:10279000018041F25C518180704738B5012000F022
:1027A00018F8050008BF01F067FA00F007FB53496D
:1027B000441EA441281F0860E40F284600F073F867
:1027C0004F48012101701CB1BDE8314000F0F2BA60
:1027D00031BD2DE9F84300240026051D15F0030046
:1027E0001CBF291D0D1A00F0E9FA444FD7F800C0AC
:1027F000431E434800789B41DB0F10B1A9B2112959
:1028000007D26246D2F800E0CEF3C03119B10026FB
:1028100027E03C4AF6E7A9B2EEB1D4F80080C644FE
:102820004FEAD839CEF30E0E4EEAC93EC4F800E0A6
:10283000CEF30E0E8E4514DB44B32268C2F30E06AF
:10284000761B1FFA86FEBEF1080F13D3665245F4BD
:102850000045258011E0CEF30E048C4221DA0126DA
:1028600014461168C1F30E010A4411880029C9D128
:1028700000240BE042F40042226030B1A44504D1B0
:102880002068C0F30E0021183960241D0BB100F040
:1028900091FA14F0030018BF01F0EEF92046BDE8EC
:1028A000F2831446C8E710B513498842044603D39F
:1028B00001F5C051884201D301F0DEF954F8040C4F
:1028C000C0F3C03008B901F0D7F900F077FA54F836
:1028D000041C0A4A21F40041401E44F8041C8041B3
:1028E0001368C00F211F994238BF116018B1BDE8AD
:1028F000104000F05FBA10BDD4530020D473002004
:10290000BC5300207456002003E011F8013B00F88E
:10291000013B13465A1E002BF7D1704710B51346E2
:102920005A1E3BB110F8013B11F8014BA342F6D0FF
:10293000002010BD012010BD10B5044610460A4607
:102940000146204601F038FA204610BD01460878BD
:10295000497800EB012080B27047024681B01078C0
:10296000022903D1517800EB012013E0032906D19D
:102970005178927800EB012000EB02400AE0042934
:1029800008D15178937800EB0120D17800EB034017
:1029900000EB016001B0704701F080BA10B504008F
:1029A00001D1002010BD04F1080080B2FFF711FF33
:1029B00028B1002101608480FF218171083010BDA1
:1029C00080B508B9052002BD10F8021CFF2901D00E
:1029D000042002BD0838FFF766FF002002BD002278
:1029E000FFE738B50446A1B1DFF858331D78A84297
:1029F00004D30846FFF7E4FF032032BDA1F108032A
:102A00001868002804BF9D79FF2D04D00846FFF701
:102A1000D7FF052032BD012A9C71DFF82C0302D1BB
:102A200000F087F801E000F051F84FF40041204633
:102A300000F0CEF8002032BD2DE9F041804600F0D4
:102A4000BDF900260024DFF80053471EBF41286867
:102A5000FF0F58B110F8021C414502D01CB90646C0
:102A600001E0A4B9044650F8080CF2E74FF4004125
:102A7000404600F0C4F824B132462146284600F012
:102A800069F80FB100F096F92046BDE8F0814FF4E7
:102A90000041404600F09CF8EEE770B505460E4652
:102AA00000F08CF9A8490C68401E8041C00F44B169
:102AB00014F8021CA94206BF2178B14254F8084C10
:102AC000F5D108B100F076F9204670BD38B500F0B8
:102AD00014F8421E9241002045F8080CD20F2168DC
:102AE00011B9256006E0014651F8080C0028FAD11A
:102AF00041F8085C02B129E031BD04460D4600F002
:102B00005DB938B5044600F059F90025411E8941E8
:102B10002068C90F40B10546A5F10800026822608F
:102B200000220260FF22827109B100F043F92846B9
:102B300032BD38B5FFF7E1FF401E216845F8081C9B
:102B40008041C00F256000D000E031BDBDE83140BC
:102B500000F030B97CB504460D46164600F02EF95B
:102B6000401EA5F10801804123680A68C00F9D42FC
:102B70000CBF226046F8082C00220A60FF228A71EE
:102B800018B1BDE8734000F015B973BDF8B506463D
:102B90000D46174600F012F90024431E9B41316890
:102BA000DB0F09B935600DE07A1E03E0D1B251B1F7
:102BB0000146521E51F8080C0028F7D1D2B212B1CA
:102BC00041F8085C01240BB100F0F4F82046F2BD96
:102BD00038B500F02CF810D200F0F0F85B49096825
:102BE00031F81420401E8041154321F81450C00FC5
:102BF00008B100F0DFF8002032BD032032BD38B547
:102C000000F015F811D200F0D9F85049096831F8F0
:102C10001420401E22EA0505804121F81450C00FFF
:102C200018BF00F0C7F8002032BD032032BD0D46AA
:102C300044490A7890420446704780B5FF2803D182
:102C400000F0B8F8002002BD072002BD80B5FF28C3
:102C500003D100F0B3F8002002BD072002BD80B50B
:102C6000FFF788FD38490020086001F019F901F0EC
:102C70000FFA01F017FAFFF790FD002002BD80B5B2
:102C800000F001F8FCE72DE9F04101F07DFA2D4854
:102C90002E4C017822680025E8B232F8100018B9ED
:102CA0006D1CE8B28842F7D3E8B2884229D200F01E
:102CB00085F82168EEB231F81680401E804100226E
:102CC00021F81620C00F08B100F074F8204F214AF7
:102CD0003D70414652F82620E8B290470546FF2055
:102CE000387000F06BF8216831F81620401E8041E2
:102CF000154321F81650C00F18B1BDE8F04100F09F
:102D000059B8BDE8F08101700A0A42700A0C090E38
:102D10008270C170001D704701700A0A090C427070
:102D20008170C01C704710B540B1002300E05B1CEF
:102D3000DCB2944204D2045D8C42F8D0002010BD75
:102D4000012010BD42342000505300205453002075
:102D50000543002008412000027A0B7A9A420CD1E8
:102D60005AB1022A05D100880988884205D101207C
:102D70007047032A08BF00F00CB8002070470A7A99
:102D80000272032A04BF0822FFF7BEBD0988018032
:102D9000704710B5082210F8013B11F8014BA3420F
:102DA00003D1521EF7D1012010BD002010BD082212
:102DB000FFF7AABD80B501F0EDF902E080B501F0A2
:102DC000E5F900B10120C0B202BD10B50FF2241226
:102DD000830852F823201368C00000F01800FF2475
:102DE0008440A34381401943116010BD04283D492C
:102DF00003D1086840F480300BE0052804D10A684C
:102E000042F400320A607047062804D1086840F492
:102E10008020086070470F2805D13348016841F0D1
:102E20000201016070470CD90FF26C13A0F1100180
:102E30001038400953F82000012201F01F018A4098
:102E4000026070470428274903D1086820F48030C5
:102E50000BE0052804D10A6822F400320A607047AA
:102E6000062804D1086820F48020086070470F28E5
:102E700005D11D48016821F00201016070470CD99D
:102E80000FF22813A0F110011038400953F8200068
:102E9000012201F01F018A40026070470E28134989
:102EA00004D1086840F00060086070470F2804D122
:102EB0000A6842F000720A6070470CD90FF20013E2
:102EC000A0F110021038400953F82000012102F04F
:102ED0001F029140016070470548016841F00101FF
:102EE0000160704724ED00E010E000E004ED00E038
:102EF00098200D400000000018ED00E01CED00E0FF
:102F000020ED00E000E400E004E400E008E400E07C
:102F10000CE400E010E400E014E400E018E400E059
:102F20001CE400E020E400E024E400E028E400E009
:102F30002CE400E030E400E034E400E038E400E0B9
:102F40003CE400E040E400E044E400E048E400E069
:102F50004CE400E050E400E054E400E058E400E019
:102F60005CE400E060E400E064E400E068E400E0C9
:102F70006CE400E070E400E074E400E078E400E079
:102F80007CE400E080E400E084E400E088E400E029
:102F90008CE400E090E400E000E100E004E100E007
:102FA00008E100E00CE100E010E100E080E100E079
:102FB00084E100E088E100E08CE100E090E100E0E5
:102FC00080E200E084E200E088E200E08CE200E0E1
:102FD00090E200E02DE9F14382B0067895A18D5D85
:102FE000ADF80050002D4DD00D2E4FF6FF7911D1C8
:102FF0006946532000F044FABDF800004FF6FE7118
:1030000088421FBF48450299087A002800F0B18025
:103010000C4673E0052E4FF0240804D102990A7C77
:10302000243250190DE0072E0DD10299887820B96D
:1030300005F11B01ADF8001005E00A7A284608FBEF
:103040000200ADF80000BDF80000FFF7A7FC040087
:103050001CD10C2E16D102994868002812D0FFF717
:10306000ADFE471E0298BF41001DFEF70CFDBDF8E6
:103070000000FFF793FCFF0F040004D1002F01D0E4
:10308000FFF798FE99E00FB1FFF794FE02992A46E8
:103090002046FFF739FC052E12D16168242204F185
:1030A0001800FFF731FC04F118006060227C6169B0
:1030B0002430FFF729FC606800F1240161611DE004
:1030C000072E1BD154480568C5B100210160A078C6
:1030D00030B904F11001E1601B22E068294608E0E4
:1030E00004F11000E0602946207A08FB00F204F1A8
:1030F0001000FFF709FC2846FFF7D5FB4748016899
:1031000019B12046884700284DD10D2E444834D1AE
:1031100002994A6813785278C3F3830103F00303DA
:10312000022B0ADA3F4B9D7CA94201BF12F0C00F6F
:10313000029A92F82430022B09D0032919D1029A5D
:103140000121117000780299FFF749FC35E094F8ED
:103150003B0004F13A0100F046F80298C18C494561
:103160001CD141688879022818DB204601F022FA38
:1031700018B302A8FEF787FC1FE00C2E1FD102989F
:1031800041781A291CBF6068002807D0807DC107DC
:1031900004D5207C04F10F0100F025F822480078C6
:1031A0002146FFF71CFC0C2E18BF112E05D10299E9
:1031B000486810B1081DFEF766FCBDE8F783112EC4
:1031C000ECD10021217021460078FFF708FCEEE7E2
:1031D00016480078002814BF012801F070B90020BB
:1031E000704700207047124A1278A2B10B7832283B
:1031F000B8BF322002DB6F28A8BF6E20012A04D19D
:10320000323858433C2290FBF2F398B2B0F5807FFD
:10321000A8BFFF230B707047145300207053002089
:10322000A0510020084C00202853002078410020A5
:10323000CB530020001610000018151002000224C5
:10324000144000001014000063480B218170FF211E
:103250004170C1700170704780B500F0B0F8BDE8F2
:103260000140D5E001F0C1BA5C490A68030018BF0B
:10327000012322F0020242EA43020A607047A3E0FF
:103280005749A2E001460822564801F04BBC70B5F0
:10329000554D2E78044640B271B28142B8BF3446D3
:1032A00004DB69784AB29042B8BF0C46FFF786FD4E
:1032B000401E494A8041361BB61CF6B2C00FA95DBC
:1032C000D17008B1FFF776FD00F002F8204670BD1E
:1032D00038B5FFF773FD404AD378411E8941107815
:1032E000C90F834209D0414C207830B9404D2C7829
:1032F000200602D43F481370036001B116E031BDCF
:1033000038B504460B38122828BF00F0B5FCFFF78B
:1033100055FD3149364A8C70451EAD411078ED0F90
:1033200008B900F007F805B100E031BDBDE8314053
:10333000FFF740BD10B52E49087808B100F09CFC9D
:10334000FFF73CFD244CA1786278401E8041C00FFD
:10335000914211D0617008B1FFF72CFD00F05AFCCA
:103360006078254900EB80002C38086001F03FFCB4
:10337000BDE8104000F00FBC18B1BDE81040FFF7E9
:1033800019BD10BD38B51D490446087808B100F0D4
:1033900073FC1B4D287808B100F06EFC20000CBFB8
:1033A0000120032C09D0012C1CBF022C00F064FC6E
:1033B0001449FF220A6002204A60287031BD10497A
:1033C000002008701049C88C0E4900F0FF020A6006
:1033D000000A4860704700004453002000860840FF
:1033E000D0850840A885084000EF21005E510020EC
:1033F00070510020408608403C860840024300206F
:103400005D510020C8850840804C002001F039BB88
:1034100080B501F040FBBDE80240493840B210F1F0
:10342000570FB8BF6FF0560002DB0B28A8BF0A2069
:103430005730C0EB0020612190FBF1F0C0B2704723
:10344000EDE70C0010B5664C67A120466C2201F038
:1034500005FF1434FFF706FFA073FFF703FF20708A
:1034600010BDA0F140021E2A38BF403804D3A0F19D
:10347000E0010F2902D23E30C0B270472D207047C4
:1034800070B50D46FFF7EDFF06462D2E01D1F42055
:1034900070BDFFF793FC524BB0F101046DA000EB3F
:1034A000860110F826004A78A44119182846FFF72B
:1034B0002BFAE40F0CB1FFF77DFC002070BD00007B
:1034C0002DE9FC410546F12D0E46DFF8148111D19E
:1034D000317801290AD1022000F030FB2846FFF79D
:1034E000C0FF2D28014612D1F42076E0022000F022
:1034F000FEFAF3E7F02D05D130783A490870FFF76E
:10350000B3FEEBE7452DE9D1C8F8086064E000BFE1
:1035100050A000EB8107B978002904BFF878002893
:1035200014D0FA78914208BFFB2056D0582D05D10F
:1035300030888F3846F22241884205D23078B978F7
:10354000884228BF824201D2E82046E0FFF736FCDD
:103550007A78441E387831464044A441FFF7D4F9C4
:10356000E40F0CB1FFF726FC502D08F12A0010D013
:10357000522D17D0532D11D0E02D27D0E12D1CD086
:10358000E22D1ED0E52D25D0E62D04BF3178C17780
:1035900022E0B8F82600FFF772FE1DE00088FFF772
:1035A0006FFE19E098F8290018B1022000F09FFA88
:1035B00012E0022000F0C2FA0EE0007CFFF7A0FE4D
:1035C0000AE008F13C00FFF75DFE05E0C07BFFF775
:1035D0005EFE01E0317881770020BDE8F6810000D1
:1035E000804C0020F44E0020360001000600000050
:1035F00000000000000F00000000000000000000BC
:103600000000000000000300FFFF00000403FFFFB4
:103610000000FFFF0F00F4010005C40403200001B7
:1036200000000B0000000000000000000300010F7C
:10363000000000000000000000000000000000008A
:10364000000000000000000000000000000000007A
:1036500000000000000136360101000102010001F6
:103660000301000104010606080400000C010034F7
:103670000D01000F10040101140100FF16080000E5
:1036800020020000220100FF23010001240100FEAE
:10369000250100082602000028010001290100017F
:1036A0002A0200002C01000F2E0200003001000150
:1036B00031010008320200FF3401000735010240E9
:1036C000360100003701000138010001390100FF17
:1036D0003A010B1D3C080000460100084701000F9D
:1036E00048010001490100FF4C04000050040000A3
:1036F00054040000580400005C0400006004000052
:10370000640400006804000080B500F0CBFFFFF700
:103710009BFD00F0E7F901F03BFA00F033F8BDE85B
:10372000014000F0ABBA80B5FFF748FB18B9FFF7CE
:1037300041FB00F0A1FA0849087818B901F04DFAE8
:10374000FFF78AFD00F0B2FA01F0B4FD0349012051
:1037500081F8480001BD000002430020804C002099
:103760001CB50446E73808280AD269462046FFF708
:1037700087FE0098401C009069462046FFF7A0FE97
:1037800013BD0000DFF8340300210170C1710FF296
:10379000A9210161704738B5DFF82043054620783C
:1037A00008B100F069FA01212170C549087818B103
:1037B000BDE832401D205AE1657028460228C14DFF
:1037C00002D101F03FFE19E000281CBF012800F0E3
:1037D00053FA002020712968BB488A7D5106617820
:1037E0004CBF90F8462090F8252021B9C07810B140
:1037F000022AC8BF0222A27000F03BF8E179B1B9F9
:10380000286808B900F038FA2868B04B4268117887
:1038100001F02001A17191786171017A501E8A1C1A
:103820000270491CEE221A60C9B201F08FF9FFF74D
:10383000C5FAA7490A78451EA6480078AD41ED0FA4
:10384000024307D1832020700DB1FFF7B3FABDE822
:10385000314023E0202804D10E2104F10800FEF7B6
:1038600047FF022020701DB1BDE83140FFF7A2BA2A
:1038700031BD80B5FFF7F6FC904B93F90220012192
:103880009140491E0840D870587818B9BDE80140E9
:1038900001F08BBDBDE8014001F078BD8E488D4A36
:1038A0000168490849000160002010708349487888
:1038B000022808BF01F0CCBD10B5804C607840B93B
:1038C000FDF70CFAE178814203D3BDE810401C20DB
:1038D000CDE0BDE8104001F08BBD10B5774C012064
:1038E000E071ED20FFF73CFF6078BDE8104052E743
:1038F00080B57749774B0A781878024318BF00F0F3
:10390000BBF9FFF75BFA6D490A78401E8041C00F92
:10391000022A07D183230B7008B1FFF74BFABDE8E9
:103920000140BBE718B1BDE80140FFF743BA01BD54
:1039300010B5624C607800281CBF012800F09CF98B
:103940000420207000F039F921796448491C217164
:10395000C9B202788A4203D2BDE81040E12086E075
:10396000A178407B4A1C8242B8BF481CA070FFF778
:1039700080FF83202070BDE810409DE710B5FFF761
:103980001DFA4E490A78441EA441E40F832A0ED141
:10399000887940B985220A700CB1FFF70BFABDE8AF
:1039A0001040002063E08620087001F0A9FD04B1FA
:1039B0003DE010BDF8B504460D46FFF7FFF93F4F57
:1039C000461EB6413878F60F862812D18721397005
:1039D00001F009FE0EB1FFF7EDF97879844204D1C8
:1039E000002D0CBF00201B2000E0E920BDE8F240C4
:1039F0003DE01EB1BDE8F140FFF7DCB9F1BD10B507
:103A0000FFF7DCF9441E2D480178A441E40F862914
:103A10000AD18722027001F0E6FD0CB1FFF7CAF966
:103A2000BDE81040E92022E004B100E010BDBDE88F
:103A30001040FFF7BFB90000264810B501781F4CB1
:103A400020290ED124490A68520852000A60002138
:103A500001702178022901BF1D4A10780028FFF764
:103A600047FF04F10800BDE81040FEF75ABE10B54C
:103A70000446124800211B2CC171017004D0184863
:103A8000017801F0FE01017000F097F8FFF720FCCB
:103A9000FFF750FC2046BDE81040FDF788B910B58F
:103AA000084C206808B900F0E7F800F036F9216802
:103AB000C86000F0B3FE2268108210BD7051002073
:103AC0000243002040420020804C002038880840FB
:103AD0005C5100205E51002090860840A44C0020DC
:103AE000CF5100205E48002141700170704738B509
:103AF000050008BF00F0C0F8FFF760F9441E584801
:103B00004178A4410D43457000F070F8E40F1CB1FA
:103B1000BDE83140FFF74EB931BD10B5040008BF14
:103B200000F0AAF8FFF74AF94D494A78401E804153
:103B30001443C00F4C7000B13BE010BD10B5040041
:103B400008BF00F099F8FFF739F945494A78401E57
:103B500084F0FF0480411440C00F4C7008B1FFF79F
:103B600029F9BDE8104028E080B5FFF727F93C4966
:103B7000401E804100224A700A70EF2239490A60D3
:103B8000ED220A60C00F0A6008B1FFF713F9BDE823
:103B9000014001F02CB810B5FFF710F93049441E70
:103BA000A4414878E40F08B100F020F804B100E027
:103BB00010BDBDE81040FFF7FDB810B5FFF7FEF8E7
:103BC0002749441EA4414878E40F60B926490A7881
:103BD000100608D42549087828B9254A117808061E
:103BE00058BF00F017F804B1E3E710BD80B5FFF748
:103BF000E5F81B4A411E89411078C90F20B90123FD
:103C00001370E3221748026019B1BDE80140FFF7C5
:103C1000D1B801BD70B5FFF7D1F81149451EAD41CE
:103C20000878ED0FA8B10022124E0A70EF207060E4
:103C3000ED2070607060FFF7C1F8441EA4412A2097
:103C4000FFF72CF96FF00400E40F30600CB1FFF7C0
:103C5000B1F81DB1BDE87040FFF7ACB870BD000011
:103C6000CE510020388808405C5100205E51002071
:103C700070510020348808407047000080B5002053
:103C800000F00CFE4FF47F0000F01AF847486FF088
:103C9000080141606FF01002016841F00801016005
:103CA0004260016841F01001016001BD3F480168B8
:103CB00021F010010160026822F008020260DDE7D5
:103CC00038B5054600F0BDFDA84228BFFFF7D4FF78
:103CD000FFF774F8441E364805602846A44100F0FA
:103CE0001DFEE40F04B100E031BDBDE83140FFF737
:103CF00061B838B5FFF762F8441EA44100F0A1FD99
:103D0000E40F05460CB1FFF755F8294801688D42CC
:103D100001D3002032BD284632BD38B5FFF74EF83A
:103D2000441EA44100F09FFDE40F05460CB1FFF7CF
:103D300041F81F4801688D4201D3002032BD28465A
:103D400032BD70B51A4D04462868844228BFFFF77B
:103D500093FFFFF733F86C60461E2046B64100F033
:103D6000BDFD00F06EFDF60F84420AD111496FF0DF
:103D7000100008600EB1FFF71DF8BDE87040FEF7B7
:103D800025BC1EB1BDE87040FFF714B870BD704788
:103D9000FEF71CBC80B500F087FEBDE80140FEF7D1
:103DA00063BC0348006870470000000008880840B2
:103DB000C85200200C88084062F30F2262F31F42B1
:103DC000401810F0030308D0C91A1FD3DB0748BFFF
:103DD00000F8012D28BF20F8022D130030B414463E
:103DE0001546103928BF20E93C00FAD8490728BFFA
:103DF00020E90C0048BF40F8042D890028BF20F8B6
:103E0000022D48BF00F8012D30BC7047C91818BFFB
:103E100000F8012DCB0728BF00F8012D70470000E6
:103E200080B568B9FF20FEF711FF0021002001F0E6
:103E300021FC1649164A002008700121117001BDAD
:103E4000144A0FF2410100201070BDE8044001F057
:103E500011BC70B5104E0D463178FF2904460DD0C7
:103E60000420FEF79BFD38B1C02101708570C4703D
:103E700001463078FEF7B3FD002070BD012070BD13
:103E800000000000810801F00101E2E71852002063
:103E9000CC530020BB5300200443002000F0B0BCF2
:103EA0007A4900204860704770B504460D461646B2
:103EB00000F018F808B1466070BD1020FEF789FCCC
:103EC00078B184720581466000210160C1606F494C
:103ED0000A6812B9086070BD0A4611680029FBD152
:103EE000106070BD02466948006828B103898B42A2
:103EF00004BF837A9342F7D17047F8B505460E4662
:103F00001746FEF75BFF3A463146441E2846A44159
:103F1000FFF7CAFFE40F05460CB1FEF74BFF0DB1EA
:103F20000020F2BD0820F2BDF8B504460D46164645
:103F3000FEF744FF471E324629462046BF41FFF7A1
:103F4000B3FFFF0F040018BFE6600FB1FEF732FFAA
:103F50000CB10020F2BD0820F2BD70B504460D463C
:103F6000FEF72CFF461E29462046B641FFF7BAFF52
:103F7000F60F04001CBF002020810EB1FEF71AFFCF
:103F80000CB1002070BD062070BDF8B504460D468A
:103F9000FEF714FF0026471E29462046BF41FFF7C3
:103FA000A1FFFF0F00B146680FB1FEF703FF3046D7
:103FB000F2BD2DE9F14781B0344EFEF7FFFE726885
:103FC0000199401E80418A18C00F726008B1FEF747
:103FD000F1FE3568002D53D09DF80590BDF806A080
:103FE0004FF00008FEF7EAFE0024471EBF41FF0F16
:103FF000BAF1000F08BFB9F1000F07D128799DF879
:104000000420904202D3801A287106E06868019962
:1040100081423ABF401A68606C60A88860B9E9883C
:1040200061B9E86800281CBF298900290AD0A87A4C
:10403000FEF7CEFDE8686860A88808B9E98809B18C
:10404000288940B92868B8F1000F0CBF3060C8F863
:1040500000002C4600E0A8462D680FB1FEF7AAFE2E
:1040600064B1A188002904BFE088002803D1218918
:10407000A07AFEF7ADFD2046FEF715FC002DB1D16C
:10408000BDE8F3870148406870470000F8520020FF
:104090000348002181710180704701498871704790
:1040A000F052002080B51820FEF793FB15490860F8
:1040B00018220021FEF740FC002001F0DDFA01206B
:1040C000FDF756FC022001F023FC032003F024FD41
:1040D000042003F081FE052004F08AFA062004F093
:1040E00075FD072006F078F8082006F07DFA092013
:1040F00006F0AEFC0A2007F007FFBDE802400B20E7
:1041000000F01AB854530020835620007D19200077
:104110005D592000257B2000097E2000FF8A2000B9
:104120007D8C20000FA22000FBA5200059B62000A6
:1041300079BD20004D41200012490870704780B5BC
:1041400007F01EFFBDE8014008F0F4B838B50C4692
:1041500020040BD50B4D01E0FEF732FC2878FEF76A
:104160006BFC0028F8D184F4004032BDA00602D5D3
:1041700084F0200032BDE00602D584F0100032BD8C
:10418000002032BDB453002008F0D6B8EFF3108001
:1041900072B67047EFF3108062B67047DFF8D8143C
:1041A00000200860704780B503F060F860B9002215
:1041B000012100F042F900281CBF0168002903D04A
:1041C000BDE8024001F0AFBD01BD80B5042000F0A4
:1041D00024F9DFF8A8140A78824207D3FF2000F000
:1041E0001CF9DFF89C140A78824201D2012002BD3A
:1041F000002002BD2DE9F04107468846387B00F0DB
:104200002EF900250446012624BB7A89397B3868BB
:1042100000F0BDF8040062D025810125387C2074AF
:10422000788A608207F1100009F08FF86061388B9E
:1042300061892083B87EA0764FF67F40014061817E
:1042400048074FBF41F08001DFF83804027841EAA7
:10425000C21161816289D009B8F1000F00F0070036
:1042600012D00221617321688B7B590703D5DFF8D7
:1042700018140B8A238120B34FF67F410A40401E59
:1042800042EAC01262811CE008B9002619E09006DB
:1042900005D5FEF781FB00F07F005F3008E0D00617
:1042A00005D5FEF779FB00F00F000A3000E0012091
:1042B0002081202104206073DFF8D0030078FEF70E
:1042C00087FC6DB12289617B204600F073F838B11C
:1042D000606908B1FEF7E7FA2046FEF7E4FA002627
:1042E0003046BDE8F0817FB500F0B9F80024B8B3DE
:1042F000417B062934D1016844890A7A8DF8082067
:1043000001680A88ADF8002000F0EDF8200526D5F8
:10431000BDF80010002000F026F800BBDFF868535D
:10432000A98C68460AF0F6FB0021002000F01BF87B
:1043300004464FF6FF760DE020680188B1420ED0AA
:10434000A98C0AF0E5FB1A2809D00021204600F0CC
:104350000AF80446002CEFD100200AF0DDFB01240E
:10436000204604B070BD58B1406868B14289130559
:10437000FAD50A001EBF026813888B4204D0F3E707
:10438000DFF8F4020068F0E770470120704770B56D
:1043900004460D4616461C20FEF71BFA48B10021C4
:1043A00041730573468101818173C173046041616A
:1043B000416070BD70B504000E4615462BD0012E2D
:1043C000304606D100F029F8B1490A7882420CD271
:1043D00007E0042E07D100F020F8A8490A788242AD
:1043E00003D2112070BD022E15D1002060606673CB
:1043F0002581A148016831B100E0014648680028E4
:10440000FBD14C6000E00460A04800782021FEF75A
:10441000DFFB002070BDC12070BD10B59649096852
:104420000246002005E04C7B4968944214BFFF2AF5
:10443000401C0029F7D1C0B210BD10B558B140687A
:1044400060B1437B8B42FAD1130007D003689C7B99
:10445000630703D5F3E788480068F1E710BD01461C
:104460008548006800E0406800281CBF027B8A4243
:10447000F9D1704701468048006800E0406850B1BB
:10448000026813888B42F9D1126A1378527803EBD1
:104490000223DB05F2D47047F8B505460027280053
:1044A0000E460AD07448046800E064682CB13146B6
:1044B0002046A8470128F8D127463846F2BD0020FB
:1044C000704718B56C4A13681946002401E00C4681
:1044D000496839B18142FAD14868994201D11060E6
:1044E00011BD606011BD10B5040011D0FFF7E9FFE8
:1044F0002068006AFEF7D7F92068FEF7D4F96069F2
:1045000008B1FEF7D0F92046BDE81040FEF7CBB960
:1045100010BD70B50168584B0A8819680023002443
:1045200009E04D7B052D01BF641C0E68358895425E
:10453000496808BF5B1C0029F3D1564A52491578D7
:10454000DBB2AB423FBF544B1D78E4B2AC422CBF50
:1045500001220A8A02814FF6FF73052242734289C3
:1045600042F400624281006802889A4204D0898C39
:104570000AF0CEFA1A2804D1BDE8704001200AF0F2
:10458000CBBA70BD70B53C4D2C68002C0EE0216894
:104590006668086AFEF787F92068FEF784F96069A3
:1045A000FEF781F92046FEF77EF93400EFD10020B6
:1045B000286070BD10B501000AD0A1F10802106892
:1045C000002804BF9379FF2B04D00846FEF7F8F9C2
:1045D000052010BD2D4C207890713048027830486D
:1045E000FEF7D4FA012806D120784FF40051FEF7E7
:1045F000EFFA002010BD042010BD70B5FEF7DEFB01
:10460000274E3468451EAD41ED0F8CB11F4854F85C
:10461000081C007800294FF4005102D0FEF7D8FAA8
:1046200001E0FEF7ECFA002221463046FEF792FA4E
:104630000DB1FEF7BFFB204670BD70B505460E48B4
:104640000468002614E021680A88AA420FD10020DD
:104650002081A07A410744BF207B0BF005FC062196
:104660006173F0212068407B01F0BEFB761C64681A
:10467000002CE8D1F0B270BD98530020A6EC2100C8
:10468000A7EC21000D430020084C002028530020F7
:10469000A5EC2100A9EC2100AAEC2100B5EC210039
:1046A0009C530020F8B5DFF8340488B01421016071
:1046B0003F2181605521C160FC21DFF82444DFF8EF
:1046C0002454DFF82474DFF8106461638521E16706
:1046D00001214161152141620021A9671021016377
:1046E0000E214163032181630920786504210B2099
:1046F0000860FF2139602A208021FEF766FB8021B7
:104700002B20FEF762FB2A20FEF770FB2B20FEF722
:104710006DFB80213120FEF758FBDFF8D0030168E4
:10472000090C3160FEF74AFB401E80410221F96707
:104730000022DFF8BC130A602822C00F4A6008B1CB
:10474000FEF738FBDFF8AC0301680A03FAD5386FCF
:1047500040F003003867386F4107FCD5386F40F0F0
:104760000A0038673120FEF741FB48202060FFF740
:104770003DFA206CC107FCD500211020A26F530820
:104780004941401E89B2F9D1002914BFB1F5607FBB
:104790004BF6BE21DFF8600301F0FF020260091250
:1047A0000160716881B1002200260820A76F7F0890
:1047B0007641401EFAD1D0B2521C0DF80060D0B242
:1047C0002028F1DB68468847FFF724FA4020206064
:1047D0000021206840F02000206029606960A96005
:1047E000E9602961696109B0F0BDDFF81003016873
:1047F00021F00C0141F0040101608069C0B27047F2
:10480000DFF8F802016821F00C0141F004010160B9
:104810008169406900EB012080B2704710B5FEF756
:10482000CDFADFF8DC12401E804101220A60C00F81
:104830008A684C6844EA022408B1FEF7BBFAA0B2C9
:1048400010BD80B5FEF7BAFA00F005F84A684B696A
:104850008DF8003014E0DFF8A812401E80410022DD
:104860000A60C00F704780B5FEF7A8FADFF8901213
:10487000401E804110220A60C00F4A698DF8002056
:104880000A698DF801200022C9688DF802108DF8A0
:10489000032008B1FEF78EFA009802BD01B5000EA4
:1048A00018BFFFF7E9F9FFF7CCFF964AD168401827
:1048B0000099401AD060FEF781FAFFF7CCFF9DF80F
:1048C00000204A619DF801200A619DF80220CA601B
:1048D00018B1BDE80140FEF76DBA01BD11B5002465
:1048E00081B0000E18BFFFF7C7F9FEF767FA00F0B6
:1048F00036F8D30604D50A6822F0100201240A60B3
:10490000302300F032F86FF010024A601CB10A68E0
:1049100042F010020A6000B132E013BD11B500246C
:1049200081B0000E18BFFFF7A7F9FEF747FA00F0B5
:1049300016F8130704D50A6822F0080201240A6059
:10494000202300F012F84A6822F008024A601CB1E5
:104950000A6842F008020A6000B111E013BD6A491A
:104960000A68401E8041C00F70478B609DF804208C
:10497000CA619DF805208A619DF806204A6170474A
:10498000BDE81340FEF716BA38B55F4C256860687D
:104990000540E80604D5FFF7FBF96FF010006060F2
:1049A000280704D5FFF7F6F96FF008000CE0E807D8
:1049B0000BD556485649006891F900309842B8BF67
:1049C000184608706FF00100606031BD70B5514C41
:1049D000514D666C2A20FEF761FA296831400807BC
:1049E00005D56FF00800286000F008FE13E0286885
:1049F0003040C00605D56FF01000286000F005FEBD
:104A000009E028680640F00705D5606C40084000C2
:104A1000606400F09FFB206C69680840400707D580
:104A200000F025F96FF00400686020684106F7D4B3
:104A300070BD10B539490C682B20FEF72FFA3848A5
:104A400001682140490603D56FF04001016010BDA7
:104A500001682140C90708D56FF001010160FFF727
:104A600083F8BDE81040FFF7C1B801680C4061074A
:104A700006D56FF004010160BDE8104000F0B3BB43
:104A800010BD23496FF07F0008701F48016841F096
:104A90000101016070471C48016849084900016034
:104AA0001B4890F90000704738B5FEF787F9154D9F
:104AB000441EA4412878E40F28B9FFF772F9E96889
:104AC0004018E86001E0002028701CB1BDE83140CA
:104AD000FEF770B931BD0000D0520020A486084016
:104AE000248608409085084094870840F80F2800E5
:104AF0001488084004200D4014700D4000700D40D3
:104B000010880840F8510020088808406086084056
:104B1000B85300204C8608403088084094860840EE
:104B20002C88084004E011F8013B40F8043B521E79
:104B3000D3B2002BF7D1704704E050F8043B01F8E2
:104B4000013B521ED3B2002BF7D1704738B5044653
:104B50000D0008BFFFF790F814F8010B0B4908602F
:104B60006D1EE8B20028F7D131BD38B504460D00FE
:104B700008BFFFF781F80548016804F8011B6D1EA6
:104B8000E8B20028F7D131BD0000000028880840B5
:104B9000DFF888060021C172416181800FF2F501C2
:104BA00001610021817181818173704738B5DFF81F
:104BB000705605202860FEF701F900F053F8DFF881
:104BC00064166FF00400E40F08600CB1FEF7F2F811
:104BD000E86B40F00400E86331BD80B5FEF7C4FF28
:104BE000DFF8381600204871BDE8024000E310B538
:104BF000DFF8284601206073207B18B900F003F825
:104C00000021617310BD38B5DFF81406DFF81456C3
:104C1000016C49084900016405220260ED206860CA
:104C20006860FEF7CBF800F01DF86FF00400E40FA9
:104C300028600CB1FEF7BEF8DFF8E045606918B1F6
:104C400004F11400FBF7E2FF0FF249002179206123
:104C5000A079014305D000212171A171BDE8314047
:104C600085E231BD441EA4412A20FEF717B910B5D4
:104C7000DFF8A845607B58B901212173206980477E
:104C800000202073607B18B1FFF7BDFF0021617326
:104C900010BD00002DE9F84FDFF880753879002548
:104CA00008B1FEF7E9FF81213971DFF87C1508783A
:104CB00038B1DFF87845606A010606D4606A4106BB
:104CC00003D43D7100F053FA53E100F000FCA06EF4
:104CD000DFF85C9540084000A066BD71042178793A
:104CE000B8723846FFF741FF387800F07F00C01EE9
:104CF000F871C0B27D28BEBF787800F007010429A2
:104D00006ADA00F00700022804BFF87A0028DFF80A
:104D100024653AD100F07CF9FEF750F83178B0F113
