:020000040000FA
:10000000021305022003FFFFFFFFFF02200BFFFF8B
:10001000FFFFFF020E67FFFFFFFFFF02201BFFFF36
:10002000FFFFFF022023FFFFFFFFFF02202BFFFF48
:10003000FFFFFF022033FFFFFFFFFF020EAAFFFFBB
:10004000FFFFFF022043FFFFFFFFFF02204BFFFFE8
:10005000FFFFFF022053FFFFFFFFFF02205BFFFFB8
:10006000FFFFFF022063FFFFFFFFFF02206BFFFF88
:10007000FFFFFF022073FFFFFFFFFF02207BFFFF58
:10008000FFFFFF022083FFFFFFFFFF02208BFFFF28
:10009000FFFF70DFFFFF040000000002000000C847
:1000A0000300030369A5020269A501000000000026
:1000B00004003273000074F812104C900393E06057
:1000C0001590030274FEF0900304744DF0A37405C0
:1000D000F07A0112068C7F0102116974F712104C3C
:1000E00074FF1212717E00801F851882851983E0CB
:1000F00064FE70069003877401F085188285198369
:10010000E0F8900384E068F07C017D00AA18AB1948
:10011000120E228B09EA450970030201F385188249
:10012000851983E064EF70027E07E0C0E0900387EA
:10013000E0FA900385E0F8EA28F8E43400F9740264
:1001400028F582740339F583D0E0F0900387E060EE
:100150009814600E14602C14603C14605214606893
:100160008098900384E4F0851882851983E09003D9
:1001700086F0C394809003874004E40200F974027F
:100180000200F9851882851983E0900382F09003BC
:100190008774030200F9851882851983E090038330
:1001A000F0900386E0601990038774040200F990D0
:1001B0000385E004F0F8900386E06860030200FA2B
:1001C00090038774050200F9900385E4F09003879B
:1001D000F0900384E0F8851882851983E068600355
:1001E0000200FA900382E0644D60030200FA1203F9
:1001F000288002EEF9740112123D7F020211697427
:10020000F712104C74FB121271EAFEEBFF75080432
:1002100075090078081212D574021212EE7A907BDA
:10022000007904120ECB740212123D12067E1213D4
:100230003FE0687003A3E069701285188285198316
:10024000E0F47003A3E0F4600302030874041212E4
:10025000E61206E48A088B09A808A9097402121399
:100260003FE8F0A3E9F0740412133FE0600879015D
:100270001200B6020321851882851983E068700395
:10028000A3E0697076851882851983E0F47003A372
:10029000E0F47019740212133F7410F0A37420F08C
:1002A0008518828519837410F0A37420F0750801F5
:1002B00075090078081212D574021212EE7A247BA6
:1002C00008120F4F740212123D75080478081212BA
:1002D000D574021212EE7A907B007904120ECB7460
:1002E0000212123D12067E12133FE0687003A3E073
:1002F000697004790280067904800279031200B6DD
:100300008E828F83741E80058E828F83E4F01206A6
:100310007E12133FE0687003A3E0697004790180E6
:1003200002790074050201F774E912104C74F81296
:100330001271900307E0FA900306E0F9FEEAFCE48C
:10034000CCFDEE2CED3408FF751001750F00750E15
:10035000068E088F097402780812129CC39508FC57
:10036000E49509FD74022CF51474033DF515E514AC
:100370002497F516E5153420F517EE2410F508E45A
:100380003FF509EEF50CEF5401F50D8E128F137445
:100390000978121212F685120A900383E01460574E
:1003A00014700302046F1470030204E61460102436
:1003B000FE70030205A11470030206510206617566
:1003C0000E03794E120C619003071206747402F04A
:1003D000A374401206727408120672F0A3F0741827
:1003E000C3940704F510AA10A90F12068CA90E7465
:1003F0000812123D02083E750E04794E120C61EE91
:10040000450D7005A90A120FB5C3EE9425EF9408A7
:10041000503FC3E5089424E50994084034E51424CA
:1004200096F8E5153420F988828983E0701E8516D8
:1004300082851783E070159003887401F0888289A3
:100440008374A5F08516828517838004900388E461
:10045000F075081075090078081212D57C087D0324
:10046000EEFAEFFB120F4F740212123D0203E67513
:100470000E05C3E50A947995E04006750F01020365
:10048000E675104075110078101212D57C097D03B5
:100490007402780C12129CAA0CAB0DA90A120ECB96
:1004A000740212123D900307E0A3F0900306E0A34C
:1004B000F0751043C3EE9425EF940840030203E661
:1004C000C3E5089424E509940850030203E6900369
:1004D00088E070030203E6A816A91788828983E4DE
:1004E000F0A3F00203E675080475090078081212FB
:1004F000D574021212EE7A907B007904120ECB743E
:100500000212123D740212133FE0F8A3E0F98518BD
:1005100082851983E0687003A3E0698518828519D4
:1005200083700BE0F47003A3E0F470578009E0F4EB
:100530007003A3E0F4700D8518828519837410F0A0
:10054000A37420F012067E12133FE8F0A3E9F075C1
:10055000080178081212D574021212EE7A247B0870
:10056000120F4F740212123D75080478081212D54A
:1005700074021212EE7A907B007904120ECB740290
:1005800012123D12067E12133FE0687003A3E06969
:100590007006750E010203E6750E02750F07020361
:1005A000E6900391E06007640260030203E6EAFF5D
:1005B0007A01790012068CE060030206458003127E
:1005C0000D22120D2CE970F7740412133F12066607
:1005D000740412133F780812132385080C85090D43
:1005E000850A0E850B0F9005A2780C1212C27404B6
:1005F00012133F780C121314E5084509450A450B00
:1006000070CE8EC2E5C554E04FF5C5740412133F99
:10061000120666740412133F780812132385080C1F
:1006200085090D850A0E850B0F9005A2780C121214
:10063000C2740412133F780C121314E508450945DF
:100640000A450B70CE7A01790012068C79080203F4
:10065000EFE9900393F070030203E6750E090203BD
:10066000E679060203EFE4F0A37426F0A3E4F0A316
:10067000F022F0A3E4F0A3F0A3F0A3F0A3228518E6
:1006800082851983E0F8A3E0F974022274F812104D
:100690004CEAFE900305E0D2E7F0E9A3F0EE900308
:1006A00003F08E0874042AFE7C028004E062080CC9
:1006B000ECFA3395E0FB74022AF58274033BF58370
:1006C000EEF8C3EA98EB9400A2D265D03340DDE5A2
:1006D00008F074012A0C3395E0FD7A027B03120EB8
:1006E000520200D674E912104C7582007583FE1216
:1006F00012048A168B177514007515008A828B8375
:10070000E4F0900391E07006D2AAD2AF80046402B4
:10071000700579001200B6750C00750D20750E007D
:10072000750F00900391E0600464027015120D22B1
:100730001200DBE9F87409686003020814790012FA
:1007400000B675080075090278081212D5740212F5
:1007500012EE850C08850D09AA08E5095407FB85EA
:100760000E0A850F0B740B7808121258A908120E86
:10077000CB740212123D7E007F009005AAC0828ECB
:1007800010EFF5113395E0F512F513850C08850D82
:1007900009850E0A850F0B780879101212AF9005A3
:1007A000A678081212C2758305D08278081211E566
:1007B000501D851882851983E5822EF582E5833FD9
:1007C000F583E0F9AA14AB151208438A148B150EB1
:1007D000EE70010FC3EF940240A09005AE780C12AA
:1007E00012C29005B2780C1211E54003020723797A
:1007F00000AA14AB1512084379001208438B159018
:100800000391E07004C2AFC2AAEA451570277AA529
:100810007BA58021E870030207427406687003021A
:1008200007427407687003020742851682851783A2
:100830007401F080BA7582007583021212047F1071
:10084000021169C008C0097C088A088B09740F78F6
:10085000081212F6E508F8EA25E0FAEB33FBE9A204
:10086000E7500474014AFAE8A2E0500874216AFAD9
:1008700074106BFBE9C333F91CEC70CDD009D008C0
:100880002274F812104C78007900802274942EF5AE
:1008900082E43403F583E08A828B83F0900414129F
:1008A0000A014005900414E4F008E870010990047E
:1008B00014E0FEA3E06E6007C3E89CE99D40CDE82C
:1008C000FAE9FB7F0102116974F712104C90049849
:1008D000E0F509A3E0F508F8E509C398F895E0F913
:1008E000E508C39509E8500B120AE3701178007906
:1008F00000801B247F500109C39CE99D50EF7A00C2
:100900007B008041E004F0D2E908E8700109C3E807
:100910009CE99D502C8A828B83E0C0E0900499E092
:10092000FE74182EF582E43404F583D0E0120AD365
:1009300090049AE4F0900499E0C3947F40C6E48068
:10094000C5E8FAE9FB7F02021169C082C083C2E9EF
:10095000900498E0F8A3E0686017741828F582E422
:100960003404F583E0F5C1900498120AFA4002E4D9
:10097000F0020D4074F812104C7800790090051DBB
:10098000E07055A3E0705175F900C28FC284A28354
:1009900040FCA28F4004A28350F8AEF9C28FA2831C
:1009A0005004D2848032EEC0E0E0FE1209F6D0E0BE
:1009B000F090051E120AFA40D9E4F080D51209F62B
:1009C000E08A828B83F090051D120A014005900594
:1009D0001DE4F008E870010990051DE0FEA3E06E3B
:1009E0006007C3E89CE99D40D4E8497006E4F090B4
:1009F000051DF00208BF749D2EF582E43404F583D2
:100A000022E004120AD7C394802274F812104C908A
:100A100005A0E0FEF890059FE0FFEEC39FE0500DBB
:100A2000C398F895E0F9120AE270188012C398F89A
:100A300095E0F9E8247F500109C39CE99D4004EC4E
:100A40004D70077A007B00020AD08A828B83E0F522
:100A5000F9A3AA82AB83780179008008E004F0084A
:100A6000E8700109C3E89CE99D50278A828B83E0E6
:100A7000C0E09005A0E0FE741F2EF582E43405F579
:100A800083D0E0120AD39005A0E0C3947F40CDE468
:100A900080CCC28FA28340FCC284A28F4004A28378
:100AA00050F890059F120AEDE0F5F9C28F90059F6E
:100AB000E0FAA3E06A90059F7005120AED80051226
:100AC0000AFA4002E4F0A28350D0D284E8FAE9FBAB
:100AD0000208C3120AD722F08A828B83A3AA82ABB0
:100AE0008322E824FF18E934FFF9E84922E0FA7488
:100AF0001F2AF582E43405F58322E004F0C39480D4
:100B00002274FB121271C2009005CA7808121323D6
:100B10009005CA7401F0A3F0A37469F0A374A5F062
:100B20009005B678081212877004D20080159005DF
:100B3000BA78081212876008E59D54186410700393
:100B4000022000120C87A2005003020C04AA18AB6A
:100B5000191201FFE97003020C04851882851983BC
:100B6000E0C3943C500CE0F8743CC398FA95E0FB69
:100B700080047A007B00120D45E97003020C04909A
:100B80000391E06401700C75F800C2AB539AF7D280
:100B9000EA805E79071200B68003120D22120D2C36
:100BA000E970F7740112133FE4F0A37426F0A3E494
:100BB000F0A3F0740112133F780812132385080C78
:100BC00085090D850A0E850B0F9005A2780C12126F
:100BD000C2740112133F780C121314E5084509453D
:100BE0000A450B70CE758600C2AAC28B539AFBC20F
:100BF000E990000174CDF0022000C2AF75C9AB7559
:100C0000C95B80FE750800750900750A00750B0048
:100C1000900391E0701BD2AAD2AF79051200B6E022
:100C20007003120D221200DBE9F874096870098064
:100C3000E9794E120C6180ED74016870E2E0701782
:100C4000120D229005BE78081212C29005C27808D3
:100C50001211E550EBC2AAC2AF75C9AB75C95B8072
:100C6000FEC082C08378109005A1E0C3995015752D
:100C7000B60FE5B4A2E750FAE5BBC39940F118E816
:100C800070EDE9F0020D40C082C08353BEFBE59DCC
:100C9000A2E650FA0078F8790100120AE270FA75BB
:100CA000C6807480659E70FA43BE049062707408BA
:100CB000F0794A120C6190000174F5F07403F5D5D7
:100CC00075D489A2A0E433900391F0A2E05029D218
:100CD0008453F3F753F3EF53FDF743FD10538FF7AE
:100CE00053F7DF43FC2043F10253F5DF75F820434F
:100CF000F4F0D2FED2AB802853FF3F85FFFF53F1C3
:100D0000FE43F30C53F2F375868075C48090049B08
:100D1000E4F0A3F075C2D875C50B75C402438640D4
:100D2000801E800312094AA2E940F922C082C083D2
:100D3000900498E0F8A3E0686004790180027900EB
:100D4000D083D0822274F112104C74FF1212717E83
:100D500000900391E06401706CC28490039274016E
:100D6000F07508388E098E0A8E0B7C017D00AA185A
:100D7000AB19120E228B0DEA450D6018851882857D
:100D80001983E06410602DE064EF70088E088E090E
:100D90008E0A8E0B85080C85090D850A0E850B0FB2
:100DA0009005A278081212C2E50C450D450E450FBC
:100DB00070347E01900391E064017056D2849003F8
:100DC00092E4F08051D2AAD2AF8A088B09E4F50AE6
:100DD000F50B9005C6780C1213237808790C120FC6
:100DE000CC79061200B6900391E06003020D6A12FE
:100DF0000D221200DBE9F874096870077906120009
:100E0000B680917407686084E8608974066870A48D
:100E10008082C2AFC2AAEEF9740112123D7F0802AD
:100E20001169C082C083900391E07005120881802F
:100E30001E900392E06015A28F500BE5F98A828B19
:100E400083F07A0180027A007B0080031209740229
:100E50000D40C082C083900391E070051208C880E5
:100E600003120A0A020D40C0E074F21210B29000A0
:100E700001E064CD7005122013802AE064F570242F
:100E8000E5C1C28BC0E0900415E0F8749428F582A7
:100E9000E43403F583D0E0F0900415120AFA40051B
:100EA000E4F08001007F01021111C0E074F2121021
:100EB000B2900001E064CD700512203B800BE0642D
:100EC000F5700512094A80010080DA74F612104CA0
:100ED000890A740F550AF508750900740B78081211
:100EE000129CEA2400F8EB3480F9E82400E9350983
:100EF000F985C709A2AFE433F508C2AFE50AC454C7
:100F00000FFAE5C754F84AF5C7740A12133FE0FA1E
:100F1000A3E0FB801C88828983E08C828D83F0882B
:100F2000828983A3A882A9838C828D83A3AC82AD9E
:100F300083EAFEEBFFEE24FF1AEF34FFFBEE4F7067
:100F4000D48509C7E508A2E092AF7F030211697456
:100F5000F712104CED900389F0ECA3F0A37462F04B
:100F6000A37473F0A3E0541FF0740912133FE0F56B
:100F700008A3E0F509E508333354FC90038EF074C0
:100F80000678081212F6E50890038DF090038F742E
:100F900012F0A37442F075D1FE75D601EA90627129
:100FA000F0EBA3F0906270E0D2E1F0E0A2E740FB4A
:100FB0007F02021169C082C083E9C333906272F07C
:100FC000906270E0D2E0F0D083D08222080808EA74
:100FD000C0E0EBC0E086F0E7A4FA180986F0E7A4C9
:100FE0002AFA180986F0E7A42AFA180986F0E7A475
:100FF0002AFA1986F0E7A4FBE5F02AFA190886F028
:10100000E7A42BFBE5F03AFA190886F0E7A42BFBDE
:10101000E5F03AFA18180986F0E7A4C5F02BFBE4CE
:101020003AFA1908E7C5F0C6A426F6E5F03BFBE45A
:101030003AFA1886F0E7A4F6E5F00826F6E43B084D
:10104000F6E43A08F6D0E0FBD0E0FA222518C58293
:10105000C0E0E51934FFC583C0E0E518C3958224DC
:10106000F910AF0885831985821880088583198552
:101070008218D2AFCEF0A3E520F0A37808E608F0FE
:10108000A3DEFAEFF0A3E58124FBF8E608F0A3E67F
:1010900008F0A30808E608F0A3E608F0A3158115F8
:1010A00081D0E0FED0E0F815811581E8C0E0EEC007
:1010B000E022C0D02518C582C0E0E51934FFC58301
:1010C000C0E0E518C3958224F310AF088583198525
:1010D00082188008858319858218D2AFC8F0A3E9E9
:1010E000F0A3EAF0A3EBF0A37908E709F0A3D8FA9C
:1010F000ECF0A3EDF0A3EEF0A3EFF0A3D0E0F0A3AB
:10110000D0E0F0A3D0E0F0A3E520F0A3E5F0F0A359
:1011100022851983851882E0C0E0A3E0F9A3E0FAF4
:10112000A3E0FBA37808E0F608A3DFFAE0FCA3E065
:10113000FDA3E0FEA3E0FFA3E0C0E0A3E0C0E0A3C6
:10114000E0F5D0A3E0F520A3E0A3F5F010AF08850B
:1011500083198582188008858319858218D2AFD0BB
:1011600082D083D0E0F8D0E032851983851882E000
:10117000A3FEE0A3F5207808E0A3F608DFFAE0A3D9
:10118000FFE0A3C0E0E0A3C0E0E0A3C0E0E0A3C0B4
:10119000E010AF088582188583198008858218853C
:1011A0008319D2AFD083D08222E490030278A17950
:1011B000038002F0A3D8FCD9FA7AA27B0590008EB6
:1011C000782979018015E493A3AD82AE838A828B5E
:1011D00083F0A3AA82AB838D828E83D8E9D9E712EC
:1011E0000B01121349C008C3E096F50808A3E09666
:1011F000420808A3E096420808A3E096450870015B
:10120000D3D00822C5822518C582C583351910AFF1
:1012100007F5198582188007F519858218D2AFC5A0
:1012200083222518F58210AF08F518400C15198097
:1012300008F51840021519D2AF8519832200C0D0D5
:10124000251810AF08F518500C05198008F518502E
:10125000020519D2AFD0D0226016080808C6C31301
:10126000C618C613C618C613C618C613C6D5E0EAF4
:1012700022251810AF08F518400C15198008F5182C
:1012800040021519D2AF22E066701008A3E0667024
:101290000A08A3E066700408A3E0662270042260D6
:1012A0000D18C6C333C608C633C6D5E0F41822E607
:1012B00027F60809E637F60809E637F60809E6379B
:1012C000F622E026F608A3E036F608A3E036F60894
:1012D000A3E036F62274028000C0E0F40412122269
:1012E000D0E0121332222518FAE43519FB22251812
:1012F000FCE43519FD22600C08C6C313C618C613DA
:10130000C6D5E0F42275D00075813F7518027519B5
:10131000030211A9E6F008A3E6F008A3E6F008A38B
:10132000E6F022E0F608A3E0F608A3E0F608A3E062
:10133000F622CAC0E0E6F0A308DAFAD0E0FA2225E5
:1013400018F582E43519F5832200000080FBFFFFC9
:10135000FFFFFFFFFFFFFFFFFFFFFFFFFFFFFFFF9D
:10136000FFFFFFFFFFFFFFFFFFFFFFFFFFFFFFFF8D
:10137000FFFFFFFFFFFFFFFFFFFFFFFFFFFFFFFF7D
:10138000FFFFFFFFFFFFFFFFFFFFFFFFFFFFFFFF6D
:0A1FF600CA05094338860000000008
:020000040003F7
:01FFF000F020
:020000040000FA
:10200000022C7A02221AFFFFFFFFFFFFFFFFFFFFF4
:10201000FFFFFFFFFFFFFFFFFFFFFFFFFFFFFFFFD0
:10202000FFFFFFFFFFFFFFFFFFFFFF022A06FFFF8B
:10203000FFFFFFFFFFFFFFFFFFFFFFFFFFFFFFFFB0
:10204000FFFFFF022775FFFFFFFFFFFFFFFFFFFFFF
:10205000FFFFFF022154FFFFFFFFFFFFFFFFFFFF16
:10206000FFFFFFFFFFFFFFFFFFFFFF022920FFFF32
:10207000FFFFFFFFFFFFFFFFFFFFFFFFFFFFFFFF70
:10208000FFFFFF0221AB01FFFFFFFFFFFFFFFFFF8D
:10209000102010200100F0FF0700080000FFFF00E3
:1020A00000030400000F0100000300019651180016
:1020B0000200000D320000000071319132DD315517
:1020C0003200009B3100000000000000000000A76B
:1020D0003100000000000000000000B33106FFFFE7
:1020E000FF010400005A18000000E8030000FFFF91
:1020F0002A19018813000003E8030000640064004B
:10210000B801A0BB0D00A0BB0D0002020207040134
:102110000101051E02051E020A0A01010108090843
:102120000103B80B02803E0102FEFFE8030A05002E
:1021300001FFFF0A011401E00105030101FF0F1077
:10214000FEFF864E00000000BC4D00000000FF00B6
:102150000000FF00C0E074F2122595A2AFE433F551
:1021600008D2AFAFA7AEA1EE5F54106006122EEFFB
:1021700075A1EFEE5F54086008122EF575A1F78087
:1021800023EEA2E092F0EFA2E082F0501790619867
:10219000E0F890073BE0C398A2D265D0335002E844
:1021A000F075A1FE751A00E5088066C0E074F212B1
:1021B0002595A2AFE433FED2AF9061A4E0F8759B01
:1021C00000E59158540860087591F7122F43802359
:1021D000E59158541060087591EF122F498014E56D
:1021E00091A2E092F0E8A2E082F05007E0C2E0F0B5
:1021F00012309F9061A3E0F8E5E9585404600E1294
:10220000307575E9FB906193E0A2E640F2751A0023
:10221000EEA2E092AF7F010225F4C0E074F2122535
:1022200095A2AFE433FED2AF9061A5E0F8E5BF58C8
:102230005404600675BFFB1230B780D1C3E498F830
:10224000E499F912227D8026C3E49AFAE49BFBE923
:1022500020E7E912227DE498F8E499F922C3E49892
:10226000F8E499F912227DE498F8E499F9C3E49A24
:10227000FAE49BFB22EB20E7CFE920E7E0B900106E
:10228000BB0008E88AF084F8AAF022E4FBC8FA222E
:10229000EB70227B10C833C8C933C9335007C39AC7
:1022A000C3DBF280069A50012ADBEAC833F4C8C9BE
:1022B00033F4C9FA2275F008E4C833C8C933C93306
:1022C000C99AC99B5004C92AC93BD5F0ECFBC83355
:1022D000F4C8E4C9FA2274F512252F74FA122AED13
:1022E0007508047509007808122A467404122AB782
:1022F0007AF87B077903122DC37402122A59908150
:10230000447808122CA87402122CFF7808122B189B
:1023100070487508027509007808122A467402127E
:102320002AB77AF67B077903122DC37402122A5951
:10233000851882851983E0F47003A3E0F4601B859F
:102340001882851983E0F8A3E08882F5837402F08F
:10235000A3F0A37469F0A374A5F0C2AF75D69F0271
:1023600000007406122A597F040227B8080808EAF8
:10237000C0E0EBC0E086F0E7A4FA180986F0E7A415
:102380002AFA180986F0E7A42AFA180986F0E7A4C1
:102390002AFA1986F0E7A4FBE5F02AFA190886F074
:1023A000E7A42BFBE5F03AFA190886F0E7A42BFB2B
:1023B000E5F03AFA18180986F0E7A4C5F02BFBE41B
:1023C0003AFA1908E7C5F0C6A426F6E5F03BFBE4A7
:1023D0003AFA1886F0E7A4F6E5F00826F6E43B089A
:1023E000F6E43A08F6D0E0FBD0E0FA22E4CFC0E011
:1023F000E4CEC0E0E4CDC0E0E4CCC0E075F020E67F
:1024000026F608E633F608E633F608E633F618183B
:1024100018EC33FCED33FDEE33FEEF33FFC3EC97E6
:1024200009ED9709EE9709EF97191919400FFFEC7D
:1024300097FC09ED97FD09EE97FE191906D5F0BF37
:10244000ECF709EDF709EEF709EFF7191919D0E0E4
:10245000FCD0E0FDD0E0FED0E0FF222518C582C010
:10246000E0E51934FFC583C0E0E518C3958224F880
:1024700010AF0885831985821880088583198582A5
:1024800018D2AFCEF0A3E520F0A37808E608F0A3B9
:10249000DEFAEFF0A3E58124FAF8E608F0A3E608F7
:1024A000F0A3E608F0A30808E608F0A3E608F0A306
:1024B00015811581D0E0FED0E0F8158115811581D8
:1024C000E8C0E0EEC0E022122CF4B90003022519A6
:1024D000E49004D1786D791A8002F0A3D8FCD9FA7F
:1024E000781A9020867A01BA00028007E493A3F656
:1024F00008DAF97A3D7B1E90209478C17901801525
:10250000E493A3AD82AE838A828B83F0A3AA82ABCD
:10251000838D828E83D8E9D9E77582F775837D74C0
:10252000001229E87582B775834B74001229E825DB
:1025300018C582C0E0E51934FFC583C0E0E518C3C3
:10254000958224F910AF0885831985821880088543
:102550008319858218D2AFCEF0A3E520F0A37808C6
:10256000E608F0A3DEFAEFF0A3E58124FBF8E60825
:10257000F0A3E608F0A30808E608F0A3E608F0A335
:1025800015811581D0E0FED0E0F815811581E8C0F5
:10259000E0EEC0E022C0D02518C582C0E0E51934C5
:1025A000FFC583C0E0E518C3958224F310AF08850A
:1025B00083198582188008858319858218D2AFC84F
:1025C000F0A3E9F0A3EAF0A3EBF0A37908E709F0A0
:1025D000A3D8FAECF0A3EDF0A3EEF0A3EFF0A3D0B4
:1025E000E0F0A3D0E0F0A3D0E0F0A3E520F0A3E575
:1025F000F0F0A322851983851882E0C0E0A3E0F9FA
:10260000A3E0FAA3E0FBA37808E0F608A3DFFAE072
:10261000FCA3E0FDA3E0FEA3E0FFA3E0C0E0A3E095
:10262000C0E0A3E0F5D0A3E0F520A3E0A3F5F0100F
:10263000AF088583198582188008858319858218DB
:10264000D2AFD082D083D0E0F8D0E03275F0108ED7
:10265000218F22858226858325851882851983E02E
:10266000CEA3E0CF852682852583EBC9EAC8EDCBD2
:10267000ECCAC3E833C8E933C9EA33CAEB33CBC386
:10268000EA9EF524EB9FF523B35004AB23AA24EC78
:1026900033CCED33CDD5F0DAAE21AF2222D083D0CA
:1026A00082ECC0E0EDC0E0E493A3FCE493A3FDED75
:1026B0004C600D1227F8EC24FFFCED34FFFD80EF99
:1026C000E493A3FCE493A3FDED4C600D1228CBEC46
:1026D00024FFFCED34FFFD80EFD0E0FDD0E0FCE412
:1026E00093A3C0E0E493C0E022851983851882E0BB
:1026F000A3FEE0A3F5207808E0A3F608DFFAE0A344
:10270000FFE0A3C0E0E0A3C0E0E0A3C0E0E0A3C01E
:10271000E0E0A3C0E010AF08858218858319800827
:10272000858218858319D2AFD083D0820229EED05A
:1027300083D082E9C0E0E493A3C386F0C5F095F0AE
:10274000F908E493A386F0C5F095F0700BE493A329
:10275000C3994005E9048002A3E475F002A4258230
:10276000F582E5F03583F583D0E0F9E493A3C0E08A
:10277000E493C0E022C0E074F2122595A2AFE433E6
:10278000FED2AFC2C0901ADEE0700BE5D1A2E450D9
:102790001D122E4D8018E5D1A2E3500675D1F71217
:1027A0002E1DE5D1A2E4500675D1EF122E23EEA224
:1027B000E092AF7F010225F4851983851882E0A39A
:1027C000FEE0A3F5207808E0A3F608DFFAE0A3FF17
:1027D000E0A3C0E0E0A3C0E0E0A3C0E0E0A3C0E06D
:1027E00010AF088582188583198008858218858333
:1027F00019D2AFD083D08222C0E0C3E4939608748C
:1028000001939618400FE49366700808740193666C
:102810001870007019A3A3C3E493960874019396EB
:1028200018A3A3400DD0E0D0E0D0E00226D9A3A3A6
:10283000A3A3A3A3D0E022D083D082C5F0E493A3C6
:10284000C5F0C395F0F5F0E493A3C395F04005E51A
:10285000F0048001E475F002A42582F582E5F035EC
:1028600083F583E493A3C0E0E493C0E02274048082
:102870000474028000CCC0E0EDC0E0E518C39CCC3D
:10288000AD1950011D10AF068C188D1980068C18DB
:102890008D19D2AF12296AD0E0FDD0E0FC2274027B
:1028A0008000CCC0E0EDC0E0E518C39CCCAD195071
:1028B000011D10AF068C188D1980068C188D19D249
:1028C000AF122948D0E0FDD0E0FC22C0E0C0F08883
:1028D000F0E4936670080874019366187000A8F01D
:1028E000A3A3700BD0F0D0E0D0E0D0E00226D9A3B3
:1028F000A3D0F0D0E022D083D082CCC0E0E493A378
:1029000060061229AA1470FAE493A36006122AD76B
:102910001470FAD0E0FCE493A3C0E0E493C0E0229A
:10292000C0E074F2122595758900C2C5901ADEE0E8
:10293000700E7A007B109007D1E0F91233C3800348
:10294000123C637F010225F4CAC0E0E493A3C58270
:10295000CCC582C583CDC583F0A3C582CCC582C555
:1029600083CDC583DAE5D0E0CA22CAC0E0E0A3C5C2
:1029700082CCC582C583CDC583F0A3C582CCC58278
:10298000C583CDC583DAE6D0E0CA22C008C3E0968D
:10299000F50808A3E096420808A3E096420808A3B9
:1029A000E09645087001D3D00822C0E0E493A3D399
:1029B0009C5010E493A3C39C400AD0E0D0E0D0E048
:1029C000022913A3A3A3D0E02270090808082260FB
:1029D00016181818C6C333C608C633C608C633C689
:1029E00008C633C6D5E0EA22C09FF59FE473D09FA6
:1029F00022D083D082C09FE493C0E0740193C0E0F2
:102A0000740293F59F22C0E0C0D0E8C0E0A8A8D22D
:102A1000AFC2C7751A00E8A2E792AFD0E0F8D0D0F5
:102A2000D0E0322518F58210AF08F518400C1519C2
:102A30008008F51840021519D2AF85198322740455
:102A4000800A74038006740280027401C0E0F404FA
:102A5000122A23D0E0122CB72200C0D0251810AFC4
:102A600008F518500C05198008F51850020519D200
:102A7000AFD0D022BB0102E722C082C08389828A04
:102A800083BB0003E08002E493D083D082226016EF
:102A9000080808C6C313C618C613C618C613C61836
:102AA000C613C6D5E0EA222518F8E43519F922251F
:102AB00018FAE43519FB222518FCE43519FD22C368
:102AC000E0C696F608A3E0C696F608A3E0C696F61A
:102AD00008A3E0C696F622C0E0E493A36C7009D088
:102AE000E0D0E0D0E0022913A3A3D0E02225181003
:102AF000AF08F518400C15198008F5184002151993
:102B0000D2AF22E76670100809E766700A0809E785
:102B10006670040809E76622E066701008A3E066A4
:102B2000700A08A3E066700408A3E06622C3E0967A
:102B300008A3E09608A3E09608A3E096A2D265D089
:102B40003322C3E096F008A3E096F008A3E096F0E5
:102B500008A3E096F022C3E697F60809E697F60880
:102B600009E697F60809E697F622C3E493960874F7
:102B70000193960874029396087403939622E627AD
:102B8000F60809E637F60809E637F60809E637F6E3
:102B900022E026F608A3E036F608A3E036F608A3FE
:102BA000E036F622E493F608740193F60874029373
:102BB000F608740393F622E647F60809E647F60896
:102BC00009E647F60809E647F622E657F60809E659
:102BD00057F60809E657F60809E657F622E056F6D2
:102BE00008A3E056F608A3E056F608A3E056F6223E
:102BF000E056F008A3E056F008A3E056F008A3E082
:102C000056F022E026F008A3E036F008A3E036F004
:102C100008A3E036F022700422600D18C6C333C644
:102C200008C633C6D5E0F41822E4C396F608E49645
:102C3000F608E496F608E496F622C6F4C608C6F44A
:102C4000C608C6F4C608C6F4C622600D08C6A2E7C8
:102C500013C618C613C6D5E0F322C3E7960809E7E2
:102C6000960809E7960809E79622C3E09608A3E0CC
:102C70009608A3E09608A3E0962275D00075813FE0
:102C80007518D1751904000224C7600C08C6C31357
:102C9000C618C613C6D5E0F422E6F008A3E6F0088D
:102CA000A3E6F008A3E6F022E0F608A3E0F608A306
:102CB000E0F608A3E0F622CAC0E0E6F0A308DAFADC
:102CC000D0E0FA22EAF0A3EBF0A3ECF0A3EDF022BF
:102CD000E0FAA3E0FBA3E0FCA3E0FD22E0F8A3E020
:102CE000F9A3E0FAA3E0FB22E8F0A3E9F0A3EAF0FD
:102CF000A3EBF022E5C754F84401F5C7790122257A
:102D000018F582E43519F583221229F1C9DF05127D
:102D100029F1E5DF051229F12AE0051229F1BAE0CF
:102D2000051229F112E1051229F1F4E1051229F148
:102D3000D9E2051229F11EE3051229F17FE30512FC
:102D400029F10BE4051229F137E4051229F182E497
:102D5000051229F1A8E4051229F140E5051229F12F
:102D6000E9E5051229F13CE6051229F16DE60512A7
:102D700029F1A4E6051229F148E8051229F114E920
:102D8000051229F1C7E9051229F1AB99071229F1BA
:102D9000BC99071229F15A9A071229F1729A07125F
:102DA00029F1F4FF011229F1E37F001229F1819A40
:102DB000071229F1919A071229F1A69A071229F10F
:102DC000379B071229F1D096071229F15397071262
:102DD00029F1B997071229F1F1FF011229F1E6FF54
:102DE000031229F1F6FF031229F1F9FF031229F169
:102DF000FCFF031229F1F87F001229F1708D0712F0
:102E000029F1928D071229F1FA8E071229F17E8F8E
:102E1000071229F1D5FF041229F1DEFF041229F16E
:102E2000E7FF041229F1F5FF041229F15FC306122E
:102E300029F1CCC3061229F194C4061229F109C55F
:102E4000061229F10CC6061229F139C8061229F119
:102E50009EC8061229F1E9C8061229F1FAC806121D
:102E600029F109C9061229F11FC9061229F132C92F
:102E7000061229F13DC9061229F14BC9061229F1A2
:102E80005CC9061229F14BFA031229F177FA0312F1
:102E900029F1F9FC031229F150FD031229F190FDEB
:102EA000031229F1A4FD031229F1BDFD031229F13A
:102EB000AEFE031229F15FFF031229F173FF031223
:102EC00029F1818F071229F1A58F071229F1BE8FF1
:102ED000071229F1F08F071229F12090071229F12A
:102EE0004D90071229F15790071229F1B990071256
:102EF00029F1C890071229F1D290071229F1DF9029
:102F0000071229F1F385071229F11386071229F117
:102F10005286071229F16D86071229F18C86071255
:102F200029F1F286071229F1FB86071229F1588749
:102F3000071229F16787071229F18B87071229F1F8
:102F40004C88071229F15988071229F16A8807125B
:102F500029F1E79B071229F1FF9B071229F12B9C0E
:102F6000071229F1C6CE061229F120D0061229F146
:102F70002ED0061229F141D0061229F156D00612A0
:102F800029F16BD0061229F17ED0061229F1F2D078
:102F9000061229F157D1061229F1DFD1061229F1C3
:102FA0005BD2061229F11FD3061229F12FD3061284
:102FB00029F13ED3061229F14E9B071229F1729B8B
:102FC000071229F19A9B071229F1C29B071229F1D6
:102FD0009888071229F1BF88071229F1DE880712A5
:102FE00029F14689071229F11F83071229F1388335
:102FF000071229F14483071229F15883071229F196
:103000007683071229F18083071229F18A83071238
:1030100029F19D83071229F12A84071229F1998445
:10302000071229F1C884071229F11685071229F120
:103030006585071229F18085071229F18A85071213
:1030400029F19B85071229F1DE85071229F18FFFEF
:10305000031229F1DAFF031229F17EA4061229F1E5
:10306000A8A4061229F1C5A4061229F1D8A40612B3
:1030700029F1EEA4061229F14CA5061229F17FA52B
:10308000061229F170A9061229F1D0AA061229F117
:1030900003AB061229F14DAB061229F1AAAC0612B8
:1030A00029F1D2AC061229F1E7AC061229F1F7ACEE
:1030B000061229F13BAD061229F196AD061229F14F
:1030C000A6AD061229F14492071229F15E92071269
:1030D00029F18692071229F19F92071229F1C392D2
:1030E000071229F1E192071229F1F892071229F14A
:1030F0002693071229F14193071229F13DFF01128E
:1031000029F183FF011229F1E6F9061229F1F6F9F6
:10311000061229F1FDFA061229F131FB061229F1F6
:103120005DFB061229F180FB061229F19EFB0612B7
:1031300029F1D8FB061229F141FC061229F183FC82
:10314000061229F1C2FC061229F1F3FC061229F13C
:103150001EFD061229F184EE061229F1E9EE06128F
:1031600029F18FEF061229F1C6EF061229F1A8EA1C
:10317000051229F13FEB051229F16DED051229F138
:1031800058F0051229F1E6F1051229F152F2051263
:1031900029F1A1F5051229F1ECF6051229F19B940C
:1031A000071229F1E694071229F182FD021229F192
:1031B00092FF021229F11AF8051229F147F80512B7
:1031C00029F186F9051229F11FFB051229F1A3FD4A
:1031D000051229F1DAFD051229F128FF051229F15E
:1031E0006FC9061229F115CC061229F1BACC0612C4
:1031F00029F1E6CC061229F114CD061229F149CDA8
:10320000061229F171CD061229F1D1CD061229F14C
:10321000F08C061229F1D790061229F1C6920612F7
:1032200029F1EF93061229F1CF94061229F17D9628
:10323000061229F12798061229F1F798061229F1AA
:103240004B99061229F1408B071229F14A8B07127C
:1032500029F16B8B071229F1E8CE051229F15ED412
:10326000051229F1CCD5051229F188D7051229F1CB
:1032700081D8051229F1B3D9051229F1C5DA051251
:1032800029F1A5DB051229F17CDC051229F16C9CE2
:10329000051229F1A49C051229F1CAA6051229F1EB
:1032A000ABA7051229F1F7A8051229F140AA0512CA
:1032B00029F1F6AA051229F1CAAB051229F1B1AC20
:1032C000051229F199AD051229F13BAE051229F13C
:1032D00065AE051229F115B0051229F185B0051268
:1032E00029F19EB0051229F1F5B1051229F1A6B216
:1032F000051229F128B3051229F1D4B3051229F1D9
:1033000044B4051229F1E0B4051229F157B50512AC
:1033100029F18FB5051229F191B6051229F150B79F
:10332000051229F1F6B7051229F13AFE041229F126
:1033300064FE041229F179FF041229F17CFF0412C2
:1033400029F1BF98071229F10B99071229F14D991C
:10335000071229F15D99071229F1A199071229F1A4
:10336000E0BC061229F11EBD061229F187BD061226
:1033700029F1A4BD061229F1BDBD061229F16FBEC7
:10338000061229F178BE061229F1BDBE061229F1F6
:10339000F3BE061229F10ABF061229F17CBF0612FC
:1033A00029F109C0061229F13FC0061229F196C081
:1033B000061229F1FAC0061229F11DC1061229F1DF
:1033C00081C1061229F1DDC1061229F118C20612C7
:1033D00029F14DC2061229F15FC2061229F171C20C
:1033E000061229F1A9C2061229F1F5C2061229F125
:1033F00033C3061229F160D8061229F1A0D90612AA
:1034000029F1C3D9061229F1D4D9061229F1C9DB51
:10341000061229F1E9DB061229F176FD061229F1DF
:10342000ACFD061229F1F4FD061229F150FF061237
:1034300029F1D9E9021229F10AEB021229F144EB30
:10344000021229F103ED021229F12DED021229F1E8
:10345000BAEF021229F1FAEF021229F191F10212E8
:1034600029F124F2021229F17CF2021229F11FF350
:10347000021229F157F3021229F199F3021229F1EC
:1034800008F5021229F15AF6021229F17DF802120A
:1034900029F1ABF8021229F1D2F8021229F1DBF876
:1034A000021229F132F9021229F1C4F9021229F1AA
:1034B000B2FC021229F135FD021229F156FF051264
:1034C00029F16CFF051229F176FF051229F1D0FFD1
:1034D000051229F1DEE1061229F1F4E1061229F1C3
:1034E00099E2061229F1D8E2061229F1F5E2061254
:1034F00029F126E3061229F173E3061229F1A6E366
:10350000061229F1E1E3061229F1CDE5061229F1AF
:103510002EE6061229F17493071229F1D3930712AC
:1035200029F12D94071229F1BD95071229F12F9643
:10353000071229F16D96071229F1AE96071229F1AB
:10354000D6AD061229F1DCAD061229F11DAE061228
:1035500029F10FB0061229F13FB0061229F1AEB0E1
:10356000061229F17CB1061229F1BDB1061229F12A
:10357000EBB1061229F175B2061229F18CB20612CE
:1035800029F199B2061229F1A3B2061229F13FB42A
:10359000061229F14FB5061229F198B5061229F144
:1035A000CDF6011229F1E3F6011229F176F70112A5
:1035B00029F1A2F8011229F197F9011229F134FA3F
:1035C000011229F174FA011229F1F2FA011229F11A
:1035D0004FFB011229F15FFB011229F186FB011259
:1035E00029F1D9FB011229F14AFD011229F14FFD00
:1035F000011229F16FFD011229F199DB031229F162
:10360000CBDB031229F164DC031229F1BDDD0312C7
:1036100029F1A4DE031229F16FE0031229F18BE0F6
:10362000031229F1DAE0031229F15CE1031229F116
:10363000B7E1031229F1CAE1031229F12EE20312C4
:1036400029F189E2031229F139E3031229F12AE46D
:10365000031229F165E4031229F1EBE4031229F1C5
:10366000E5E6031229F1A6E7031229F1CDE80312DA
:1036700029F14AE9031229F109EA031229F18EEA34
:10368000031229F1DAEA031229F1F4EA031229F10B
:103690003DEB031229F153EB031229F109EC03125C
:1036A00029F12FED031229F13AED031229F1A1EDD1
:1036B000031229F1F4ED031229F152EE031229F15C
:1036C0004EEF031229F1F1F1031229F110F2031266
:1036D00029F121F3031229F145F3031229F1BBF378
:1036E000031229F17BF4031229F1B2F4031229F138
:1036F00024F5031229F144F6031229F174F603129A
:1037000029F187F6031229F18AF6031229F193F6BB
:10371000031229F1A5F6031229F11FF7031229F16B
:1037200055F7031229F168F7031229F194F70312F0
:1037300029F1BBF7031229F1DFF7031229F18DF804
:10374000031229F1FFF8031229F136F9031229F1C6
:1037500040F9031229F177F9031229F18DF90312C7
:1037600029F1AAF9031229F1D8F9031229F1EEF986
:10377000031229F106FA031229F118FA031229F1AA
:10378000D297071229F1E397071229F16E980712D1
:1037900029F12FDD061229F16DDD061229F1F9DD7F
:1037A000061229F104DF061229F120E1061229F19F
:1037B00055E1061229F1D5B5061229F124B60612F3
:1037C00029F1C4B7061229F198B9061229F1DAB91C
:1037D000061229F1A5BA061229F1ADBB061229F18C
:1037E000CFBB061229F12BBC061229F1ACBC061284
:1037F00029F1C251001229F1E451001229F1775345
:10380000001229F1C053001229F13454001229F199
:10381000B154001229F11655001229F11955001260
:1038200029F15B55001229F1CA55001229F1795688
:10383000001229F17C56001229F1F156001229F1EB
:103840003457001229F12A5B001229F1955C00120D
:1038500029F1D35C001229F1295D001229F16F6072
:10386000001229F1EC60001229F19A62001229F18C
:10387000CA63001229F10065001229F17A6500126D
:1038800029F19D66001229F14267001229F156675D
:10389000001229F12468001229F14D69001229F162
:1038A000666B001229F1406D001229F1D16D0012F2
:1038B00029F1DF70001229F18071001229F16F7275
:1038C000001229F1BE75001229F1CE75001229F1FE
:1038D0004C77001229F1DD77001229F1DA78001215
:1038E00029F1717A001229F10B7B001229F1307C49
:1038F000001229F17A7C001229F13A7D001229F197
:103900000080051229F1A080051229F10A81051213
:1039100029F12381051229F1BA81051229F1FE81CD
:10392000051229F12083051229F15C83051229F182
:10393000D883051229F12384051229F18284051206
:1039400029F19285051229F1B288051229F1D3894E
:10395000051229F14E8A051229F1358C051229F13B
:10396000D58C051229F17C8D051229F1DF8D051208
:1039700029F1548E051229F1638F051229F1379030
:10398000051229F16D90051229F19C90051229F17B
:103990005091051229F17C91051229F1FC91051233
:1039A00029F17C93051229F10895051229F1509609
:1039B000051229F1BB97051229F1C798051229F1C3
:1039C0006A99051229F1E399051229F1119B051253
:1039D00029F177BB041229F1DABB041229F122BCC8
:1039E000041229F166BC041229F1D0BC041229F199
:1039F00019BD041229F151BD041229F1EBBD0412C5
:103A000029F145BE041229F192BF041229F11BC00D
:103A1000041229F142C0041229F14CC1041229F107
:103A200037C2041229F184C2041229F183C304129B
:103A300029F1ABC3041229F1F4C4041229F105C51C
:103A4000041229F11DC5041229F106C6041229F138
:103A5000ECC6041229F1F5C7041229F11FC804129B
:103A600029F137C8041229F151C8041229F188C874
:103A7000041229F1A8C8041229F1CFC8041229F1AF
:103A8000E6C8041229F1C2C9041229F11ACA0412A3
:103A900029F1C3CC041229F1F2CD041229F128CE68
:103AA000041229F132CE041229F149CE041229F16F
:103AB000B6CE041229F19FCF041229F1D5CF0412FA
:103AC00029F1A6D0041229F147D1041229F175D1A8
:103AD000041229F182D2041229F1A1D2041229F18F
:103AE00024D3041229F195D3041229F1D9D3041255
:103AF00029F15DD4041229F1BAD4041229F167D551
:103B0000041229F14DD7041229F12DD8041229F1FC
:103B100083D8041229F1E1D9041229F106DC041238
:103B200029F1B0DE041229F15AE0041229F12AE148
:103B3000041229F1A2E1041229F1C4E1041229F1CD
:103B4000B3E2041229F1A3E3041229F10EE40412F2
:103B500029F13BE6061229F14FE8061229F115E991
:103B6000061229F16AE9061229F1E7E9061229F19C
:103B70007BEA061229F199EA061229F1DDEA06121A
:103B800029F103EB061229F129EB061229F141EB89
:103B9000061229F159EB061229F13FFA041229F114
:103BA00006EC061229F11BEC061229F122ED061291
:103BB00029F13DED061229F146ED061229F14FEDEE
:103BC000061229F158ED061229F162ED061229F1CB
:103BD00083ED061229F100EE061229F177D30612C1
:103BE00029F1D8D7061229F1F4D7061229F1F9D70D
:103BF000061229F1697E001229F12EF6061229F12A
:103C0000CFDD051229F1DDF7061229F126F806129B
:103C100029F192F8061229F186F9061229F1B5F96F
:103C2000061229F1C7F9061229F1E990071229F1C4
:103C30000080071229F15C80071229F19C8007128D
:103C400029F19081071229F1B481071229F1C98164
:103C5000071229F1E981071229F12082071229F1BF
:103C60003182071229F14882071229F16D82071269
:103C700029F1FC82071229F1A9FF041229F1008021
:103C8000031229F13280031229F19E80031229F1D7
:103C90003981031229F1D881031229F11D820312FF
:103CA00029F13F82031229F15882031229F17E8201
:103CB000031229F1A082031229F1DE82031229F1F5
:103CC0002283031229F14483031229F1A6830312EC
:103CD00029F16D84031229F12485031229F19685B7
:103CE000031229F16886031229F1B286031229F121
:103CF0000587031229F16B87031229F1A5870312A7
:103D000029F1F787031229F11388031229F13E885C
:103D1000031229F1458A031229F1998B031229F123
:103D2000BB8B031229F1EF8B031229F1108C0312C4
:103D300029F11F8C031229F12A8C031229F1DA8C44
:103D4000031229F1438D031229F1F08D031229F199
:103D5000288E031229F1EE8E031229F1FB8F031234
:103D600029F14590031229F1D490031229F13891D9
:103D7000031229F17391031229F1DF93031229F140
:103D80003395031229F16C98031229F13999031222
:103D900029F1C799031229F1DB99031229F1049A39
:103DA000031229F1769A031229F10A9B031229F1D1
:103DB0007A9B031229F1629C031229F1849C03125D
:103DC00029F1EA9D031229F1039E031229F1169E9F
:103DD000031229F1739E031229F1829E031229F125
:103DE0000B9F031229F1219F031229F12DA0031229
:103DF00029F13AA0031229F143A0031229F11BA2D1
:103E0000031229F14BA3031229F15BA3031229F139
:103E10006AA4031229F1E1A4031229F11AA50312DD
:103E200029F14AA6031229F190A6031229F15CA8F0
:103E3000031229F134AC031229F148AC031229F121
:103E400052AC031229F15CAC031229F166AC0312E7
:103E500029F170AC031229F189AC031229F193AC5A
:103E6000031229F111AD031229F11CAD031229F13E
:103E700049AD031229F16EAD031229F179AD031298
:103E800029F1C7AD031229F1D1AD031229F1DCAD3F
:103E9000031229F100AE031229F124AE031229F115
:103EA00080AE031229F1C6AE031229F1E3AE03126C
:103EB00029F160AF031229F197AF031229F1D6AFB0
:103EC000031229F123B0031229F1A5B0031229F13D
:103ED0003EB1031229F10EB3031229F16CB30312A0
:103EE00029F188B4031229F1AEB4031229F1EDB51A
:103EF000031229F113B9031229F154BB031229F15A
:103F000030BD031229F1C6BD031229F1EDBF031222
:103F100029F199C0031229F1CEC0031229F133C14E
:103F2000031229F13DC1031229F167C3031229F1DC
:103F300055C4031229F19EC5031229F1DEC50312EF
:103F400029F184C6031229F115C8031229F19EC96B
:103F5000031229F1BEC9031229F117CA031229F16C
:103F600019CB031229F163CB031229F1B3CB03124E
:103F700029F19DCC031229F112CD031229F12CCE87
:103F8000031229F1A7CE031229F1ACCF031229F1B4
:103F900057D2031229F176D2031229F1D7D3031293
:103FA00029F199D5031229F1EDD5031229F1A5D6EE
:103FB000031229F154D7031229F1B4D7031229F1BE
:103FC0006AD8031229F1FFD8031229F16BD9031221
:103FD00029F1A5D9031229F1D6D9031229F132DB2F
:103FE000031229F10080021229F13280021229F114
:103FF0006980021229F15082021229F19082021284
:1040000029F17383021229F1CB83021229F106856B
:10401000021229F15285021229F17A88021229F13D
:10402000E68B021229F1338D021229F1C98D021299
:1040300029F1D58D021229F1078E021229F1898FFB
:10404000021229F19790021229F1C190021229F16E
:104050001891021229F17191021229F1DD910212D7
:1040600029F1F493021229F18395021229F14D9658
:10407000021229F19397021229F1D699021229F11D
:10408000A69C021229F1B39C021229F13A9D021258
:1040900029F1E29D021229F1259E021229F16E9E5C
:1040A000021229F1C29E021229F1279F021229F160
:1040B0008F9F021229F1AC9F021229F1DC9F02129C
:1040C00029F111A0021229F1E1A0021229F18AA11D
:1040D000021229F110A4021229F130A5021229F1CD
:1040E0001BA6021229F19DA6021229F1C1AA0212F1
:1040F00029F1FEAA021229F156AB021229F189AB6D
:10410000021229F10AAC021229F157AC021229F16C
:10411000E2AC021229F134AD021229F10BAE021207
:1041200029F1C4AE021229F15FAF021229F16AB27D
:10413000021229F18AB3021229F137B7021229F1CA
:1041400055B8021229F158B8021229F187B80212A3
:1041500029F18DBA021229F166BB021229F19BBB2B
:10416000021229F1A3BC021229F159BD021229F150
:10417000FBBE021229F15FBF021229F184BF0212B5
:1041800029F1C3BF021229F104C0021229F1DCC0D7
:10419000021229F1BAC1021229F1E7C1021229F172
:1041A000B4C2021229F1EAC4021229F15BC502125B
:1041B00029F19BC5021229F1D4C5021229F168C662
:1041C000021229F1B1C7021229F174CB021229F1AE
:1041D00063CC021229F156CD021229F1CECD021282
:1041E00029F190CE021229F146D0021229F1CED047
:1041F000021229F1E3D1021229F1F4D1021229F1BC
:104200000CD2021229F11DD2021229F131D202126E
:1042100029F169D2021229F197D2021229F11CD494
:10422000021229F1EED4021229F175D5021229F1F8
:10423000B0D5021229F10ED6021229F155D602127A
:1042400029F11AD8021229F1CCD8021229F1FCD88E
:10425000021229F1C3D9021229F15BDA021229F103
:1042600039DC021229F1F0DC021229F125DD0212FB
:1042700029F18DDD021229F1BCDE021229F164DF81
:10428000021229F195DF021229F1ADDF021229F1A4
:104290003CE0021229F1F0E2021229F1C8E4021214
:1042A00029F1E4E4021229F100E5021229F1CEE538
:1042B000021229F1B7E9021229F175F2061229F169
:1042C000B5F2061229F168F4061229F177F4061204
:1042D00029F19DB8051229F1B4BD051229F1FFBDE0
:1042E000051229F14FC0051229F1E3C1051229F188
:1042F00071C2051229F1D2C4051229F1D7C60512DF
:1043000029F12BC7051229F13AC9051229F18DC9E6
:10431000051229F1E8C9051229F10ACA051229F185
:1043200011CA051229F129CA051229F109CB051272
:1043300029F1E8CB051229F1C581011229F1078283
:10434000011229F12087011229F16C87011229F14C
:10435000B287011229F10189011229F15D89011247
:1043600029F1A289011229F1358B011229F18B8ED5
:10437000011229F1B08F011229F1329B011229F1AA
:10438000C59B011229F1229F011229F161A001129E
:1043900029F1BCA0011229F104A2011229F1F0A215
:1043A000011229F187A5011229F1F6A6011229F1BE
:1043B0007DA7011229F180A7011229F1F5A70112A9
:1043C00029F1FFA7011229F10CA8011229F137A840
:1043D000011229F1E7A8011229F1E4A9011229F13A
:1043E0008EAA011229F11BAB011229F139AB01127E
:1043F00029F152AB011229F17BAB011229F19DABDE
:10440000011229F1E3AD011229F1C6AE011229F121
:104410000CAF011229F18BAF011229F137B0011253
:1044200029F169B0011229F1BBB0011229F1F7B0ED
:10443000011229F136B1011229F186B1011229F1D7
:104440008BB1011229F1DFB1011229F10BB2011276
:1044500029F1E7B2011229F137B3011229F197B31B
:10446000011229F1F1B3011229F188B4011229F1E5
:10447000CDB7011229F1E5B8011229F17EBA011276
:1044800029F1B1BD011229F143BE011229F13AC14E
:10449000011229F1F9C1011229F13DC2011229F1DC
:1044A000E2C3011229F1F6C3011229F100C401127D
:1044B00029F10AC4011229F116C4011229F132C4EA
:1044C000011229F192C6011229F1DEC6011229F169
:1044D000E8C6011229F1F2C6011229F178C70112CA
:1044E00029F1D0C7011229F1EDC8011229F151C9F2
:1044F000011229F15ECA011229F1A2CA011229F1A1
:104500004ECB011229F127CC011229F1E2CC011284
:1045100029F1EFCD011229F129CF011229F126D07D
:10452000011229F13ED0011229F195D0011229F191
:104530009FD0011229F1A9D0011229F1B4D00112A2
:1045400029F1D2D0011229F11AD1011229F17CD11D
:10455000011229F1A3D1011229F1B5D1011229F1DA
:1045600050D2011229F185D2011229F184D301120E
:1045700029F1D2D3011229F1CCD4011229F102D5AB
:10458000011229F185D5011229F1F6D5011229F17F
:10459000A2D7011229F1CCD8011229F18FD9011229
:1045A00029F160DA011229F1CBDA011229F148DB95
:1045B000011229F175DC011229F109DD011229F13D
:1045C00059DD011229F1C4DD011229F18ADE01123F
:1045D00029F1D4DE011229F12CDF011229F104E0C6
:1045E000011229F127E0011229F1EAE0011229F173
:1045F0000CE1011229F175E1011229F18BE301129D
:1046000029F17BE4011229F145E5011229F17DE749
:10461000011229F1C7E7011229F117E8011229F166
:1046200084E8011229F1E6E8011229F114E90112E6
:1046300029F138E9011229F16DE9011229F19EE908
:10464000011229F1D1E9011229F12BEA011229F114
:104650007EEA011229F1AAEB011229F157ED0112AC
:1046600029F1A5ED011229F1CEED011229F15AEE41
:10467000011229F1CFEE011229F1DDEE011229F12B
:1046800001EF011229F15EEF011229F179EF011218
:1046900029F12FF0011229F167F0011229F1AAF096
:1046A000011229F10DF1011229F1FFF2011229F194
:1046B00029F3011229F12DF4011229F13FF501121C
:1046C00029F1EFF5011229F16999061229F1A19951
:1046D000061229F1C299061229F1049A061229F14B
:1046E000669A061229F1709A061229F1809A06122A
:1046F00029F1BB9A061229F19B9E061229F188A086
:10470000061229F16EA2061229F105A3061229F15B
:10471000A7A3061229F19680041229F141810412FF
:1047200029F1EF81041229F1F582041229F1158390
:10473000041229F13E84041229F1F985041229F1A9
:104740006C86041229F11087041229F11C880412C6
:1047500029F18788041229F1C388041229F10689F6
:10476000041229F14189041229F18389041229F1E3
:10477000188A041229F1948A041229F15E8B04121A
:1047800029F13B8C041229F1D38C041229F1ED8C10
:10479000041229F11D8D041229F14E8D041229F104
:1047A000148E041229F1248E041229F1738E04123E
:1047B00029F1808E041229F1898E041229F1078FC4
:1047C000041229F1638F041229F1AE8F041229F12A
:1047D000C98F041229F1F48F041229F111900412E7
:1047E00029F11D90041229F1B491041229F1CD91FF
:1047F000041229F15292041229F16592041229F14E
:104800008492041229F12893041229F1A994041224
:1048100029F15C96041229F1F296041229F1F59619
:10482000041229F16597041229F18397041229F1E2
:104830001A98041229F16298041229F16598041259
:1048400029F12B99041229F19899041229F1BE99A2
:10485000041229F1499A041229F1679A041229F1E4
:10486000AD9A041229F1619B041229F1AB9B041249
:1048700029F1DA9B041229F1379C041229F16C9C6E
:10488000041229F1989C041229F1A69C041229F122
:10489000F39C041229F1639D041229F1AC9D0412CA
:1048A00029F1F89D041229F1249E041229F12F9E6A
:1048B000041229F14D9E041229F1389F041229F1A6
:1048C000429F041229F17D9F041229F18D9F041249
:1048D00029F1969F041229F1EA9F041229F1FE9F03
:1048E000041229F12DA1041229F140A1041229F189
:1048F00057A1041229F16CA1041229F1FAA10412A2
:1049000029F13FA2041229F1CBA2041229F1D6A267
:10491000041229F118A4041229F133A4041229F174
:104920007FA4041229F1EEA4041229F127A5041290
:1049300029F141A5041229F1A1A5041229F140A6EB
:10494000041229F18BA6041229F15BA9041229F1A2
:104950000DAA041229F17AAA041229F1BAAC0412A0
:1049600029F1D2AC041229F1D5AC041229F1E1AC41
:10497000041229F1F5AC041229F1FDAC041229F15D
:1049800030AD041229F133AE041229F1C0AE041285
:1049900029F130AF041229F1B2AF041229F173B03A
:1049A000041229F192B0041229F133B1041229F151
:1049B00090B1041229F193B1041229F1C0B104128B
:1049C00029F1D5B1041229F149B2041229F198B3A1
:1049D000041229F19EB4041229F129B5041229F117
:1049E00044B6041229F10CB7041229F13DB70412A0
:1049F00029F160B7041229F169B7041229F198B7B7
:104A0000041229F128B8041229F1DEB8041229F1A0
:104A100053B9041229F1FAB9041229F16FBA041238
:104A200029F1A6BA041229F1E4BA041229F11ABB39
:104A3000041229F1E8F9041229F13CF9041229F1D0
:104A400074F7041229F1BDF6041229F18AF6041252
:104A500029F13FF6041229F1DAF5041229F199F54A
:104A6000041229F179F5041229F1ABF4041229F1A9
:104A700038F4041229F1D6F3041229F179F304125F
:104A800029F1ECF1041229F189F1041229F1DDF088
:104A9000041229F1D4F0041229F1C8F0041229F10A
:104AA00095F0041229F146ED041229F118ED0412D3
:104AB00029F1B3EC041229F1A0EC041229F195ECD0
:104AC000041229F191DD051229F159EC041229F1A2
:104AD0006BDD051229F1EFDC051229F1ABFD0412A3
:104AE00029F160FD041229F1F4FC041229F191FC72
:104AF000041229F187EA041229F170EA041229F15B
:104B0000A6E9041229F103E9041229F167FC041251
:104B100029F127E7041229F1C9E5041229F1BEE5BC
:104B2000041229F136E5041229F144F6061229F19E
:104B3000CDE4041229F1EBFB041229F1A9E40412DB
:104B400029F1B98C061229F1728C061229F1118C07
:104B5000061229F1DC8B061229F1B18B061229F11C
:104B60007D8B061229F1558B061229F1D88A06127F
:104B700029F1C28A061229F1928A061229F1088ABD
:104B8000061229F14D86061229F10584061229F133
:104B9000DD81061229F15F81061229F110810612CA
:104BA00029F10080061229F19D80061229F15E800C
:104BB000061229F1C4EB0600000080FBE4738F00AD
:104BC0000100DD1E87000100D21A35000400A11E7D
:104BD00025000200A51E26000200A71E27000200D5
:104BE000A91E28000100B31E29000100B41E840084
:104BF0000400AA1A860001004B1E2A000100B51EFF
:104C00002B000100B61E2C000100BC1E2D00080068
:104C1000B81A2E000100BD1E2F000100BE1E30007C
:104C20000100BF1E31000100C01E32000100C01A89
:104C300033000100C11A34000100C11E360001001A
:104C4000C21A38000100C21E39000100BB1E8300D9
:104C50000200DA1E63000100CD1A64000100B71ED5
:104C600065000100B81E6D000100CE1A7100080039
:104C7000B01A66000100D91E43000100CA1E44009C
:104C80000200CB1E45000100CD1E46000200CE1ED4
:104C900047000800C51A48000100D01E4B00010063
:104CA000D11E04000100DC1EA1000100E01E37003F
:104CB0000100DF1E88000100DE1E3C000100C31A57
:104CC0003D000100C31E49000200D21E6700010022
:104CD000CF1A4D000200D41E4E000100D61E4F0018
:104CE0000200D71E3E000100C91E51000100C51E72
:104CF00052000100C61E53000100C81E54000100EE
:104D0000C41A000000000000000136360101000155
:104D10000201000103010001040106060502000072
:104D2000070100340801000F090401010D0100FF13
:104D30000E08000017020000190100FF1A0100010F
:104D40001B0100FE1C0100081D0200001F010001E4
:104D500020010001210200002301000F24020000B5
:104D60002601000127010008280200FF2A01000790
:104D70002B0102402C0100002D0100012E01000139
:104D80002F0100FF30010B1D310800003A0100081F
:104D90003B01000F3C0100013D0100FF3E0400000B
:104DA00042040000460400004A0400004E040000D3
:104DB00052040000560400005A040000010371036D
:104DC00001030103010301030103220302030103A1
:104DD00010030003000300030003000300030003AB
:104DE0004203000324030603000300030403120329
:104DF0002503230325032303040304030003000303
:104E000000034403000300032303000365032100A0
:104E100035038103000305030003000300030003BF
:104E200025032303030271023001600211027002A4
:104E30000102020202028002100261023A004100F5
:104E4000630273027202620243020002130238001C
:104E5000000200020402120200020002000200022C
:104E600004020402370037003C0244020002390009
:104E70000002000265020002350281020002050202
:104E80008202830200020300710030016000110001
:104E90007000310220035004800010006100000007
:104EA00014006300730072006200430000001300EE
:104EB00006000000000004001200000000000000D6
:104EC000000004000400370037003C0244000000EA
:104ED00000000000000065000000350081000000B7
:104EE00005000000830000000101710101010101C2
:104EF0001101010131010101010180011001610174
:104F00003B0014006301730172016201430100015F
:104F1000130106013D0135000401120100010001E9
:104F20000001000104010401330133013C0144018B
:104F300032013600000100016501000135008101E8
:104F400000010501820183010001030471040204D0
:104F50006004110470040204020401040204100439
:104F600061040004140463047304720462044304BF
:104F700000041304060400040004040412040004E2
:104F80000004000400045104640000040004000450
:104F90004404000400040004000465040004350413
:104FA0008104640005040004830400043600010049
:104FB000060000000F0000000000000000000000DC
:104FC000000003FFFF00000403FFFF0000FFFF0FCE
:104FD000F4010005C4040320000100000B000000E0
:104FE000000000000003010F0000000000000000AE
:104FF00000000000000000000000000000000000B1
:1050000000000000000000000000130097381F009F
:105010009D381F80A33800003F3901003F3902004E
:1050200019380280133803001F3804002538048023
:105030002B380500313806003D3830005B38310030
:1050400055383200673833006D3835007338340016
:10505000793836007F3811008B38140091381500EC
:105060004F38FFFF00000A000000020000000400AB
:1050700000000800000010000000200000004000B8
:105080000000800000000001000000020000000499
:105090000000000800000010000000200000004098
:1050A0000000017D4306AD4308A7430BCB4310939B
:1050B0003F0ADD43028343059B430789430C654355
:1050C0000D7143645F3DFF000007ECFDFDFDECDC6E
:1050D000DCCCBCACAC9C9C8C7C7C6C6C5C5C5C4C20
:1050E0004C3C3C2C2C1C1C03EAF5E5D5D5C5B5A5DC
:1050F00095958585757565655555454535352525E0
:1051000015150500160F00000B150B020002220FEB
:105110003300000E0F00000000000000000000003F
:1051200000000000005A6967426565416C6C696166
:105130006E63653039D0D1D2D3D4D5D6D7D8D9DAA9
:10514000DBDCDDDEDF00011916181616182303005C
:1051500000034D4C4651181A250502303016181917
:1051600020231A1C1E30003C40423A3F3F392F4753
:1051700030303017181921301B1D1F300C0E020B58
:10518000040B0A0708000F020402010101010902D1
:1051900000BE040AE80300000E000000E8030C0053
:1051A0001E0000007F0005030004091E100A0C10F9
:1051B0000803FF0C280004040209033C0C05080B3B
:1051C000081EC082C083901921E4F0A3F07C017D09
:1051D0001C7A3B7B18123537123D8F123FE1123D8E
:1051E0009502674F74F212245B74FE122AEDE9FFF8
:1051F0008A08EBFE8C09E9703374026A701679082C
:10520000123765E4F50AF50B780A122A46780A1275
:105210002A4A805374016A6003025349790812379D
:10522000657B00EEFAF9123E0102534474016F608F
:105230000874026F6003025349EA600874036A60ED
:10524000030252E4124203E9605374036508604D9F
:1052500012337B8A0A8B0B780A122A46750A017868
:105260000A122A4A750A00780A122A4AE509F50A3A
:10527000780A122A4AEEF50A780A122A4A90185534
:1052800012286D901E4BE0F97CC57D1A901EDA1233
:105290006576123DB9740A122A59025344790212F2
:1052A0003765901E4BE0F9901855122CD0123DA78F
:1052B000E9F8901865E0A2E34010E9700D90192517
:1052C000E004F0640470031253657403650870769B
:1052D000901926E0F9740129F0E9C394054067129A
:1052E0005365806274016A706074016F790A702C72
:1052F0001237657A007B04901CD2E0F91234F5AACB
:1053000018AB19795012626A126285E81277177920
:1053100000901C85126576123E49804412376590D4
:105320001EAF12286D7A007B2090185AE0F91234D3
:10533000E97404122A59901E4BE0F9901855122C6A
:10534000D0123DE3E9F8E860179081B812286D7A31
:10535000017B0090185AE0F91234E97404122A59BA
:105360007402027BAB901855E4F0A374F8F0A374B8
:10537000FFF0A37407F02274F612245BE9FFEAFE43
:105380007AD1F912339F8A828B83E5824583702A12
:105390007A027B00123381EA4B700E7A107B009008
:1053A000185AE0F91233C380148A828B8374D1F0C7
:1053B000EFA3F0EEF912338D8003EFA3F00255C591
:1053C00074F712245B89089004D1126698901E9796
:1053D000E0F47003A3E0F470309007D1E0901E97E2
:1053E000F0A3E4F080238E828F831264F9600F8E25
:1053F000828F83A3A31264F6FAA9081237FB8E8268
:105400008F83126277E8FEE9FFEE4F70D9901E9706
:10541000E0F47003A3E0F4600A901E97E0FAA90894
:105420001237FB1244A3901825125CCD12449D7FC5
:10543000010226E974F012245B890B8C0C750900BB
:105440007508007410122CFF1262777412122CFF70
:1054500012567380471254FDF50EA3E0F50FAE0807
:10546000EE2EFEE433FFEA2EF582EB126B44650E5E
:105470007004A3E0650F7019AE09EE2EFEE433FF51
:10548000EC2EF582ED3FF583E50EF0A3E50FF00578
:1054900009050AE50AC3950C40BB0508E508C39554
:1054A0000B5005750A0080EBA90980007F080226D1
:1054B000E974F412245B890B7D00740C122CFF122A
:1054C000627780010DEDC3950B502E750A008002A6
:1054D000050AE50AC39C50ECED25E0FEE433FFEA43
:1054E0002EF582EB3F1276E51254FD65087004A399
:1054F000E0650970DB7901800279008014AE0AEE64
:105500002EFEE433FFE82EF582E9125C6A22122AAD
:10551000597F040226E90229EE74F612245B125523
:10552000AF7003A3E06D70177508637509187808EC
:10553000122A46EEFA1239457402122A59801A7557
:1055400008027509807808122A468A0889097808AD
:10555000122A4612559D122A59806A74F612245B4B
:105560001255AF7003A3E06D7017750870750918B8
:105570007808122A46EEFA12394B7402122A598020
:105580001A7508037509807808122A468A0889095D
:105590007808122A4612559D122A598028EE240EA8
:1055A000125C67FD7C801267F5123969740422EA87
:1055B000FEEBFF12680AFCE439FD901825E06C222E
:1055C0007402122A597F020226E974F612245B74CF
:1055D000FE122AED8A088B09851882851983E4F06A
:1055E000A3F01260E612693EFBECFA88828983A37D
:1055F000A3E0F97F007E00600574FF6970047E827D
:105600008045901825E06A7003A3E06B701AAA1811
:10561000AB19124B69E9FA85188285198312673C28
:1056200070027E83EAFF801F901AD2E0600464015A
:10563000700E123D17E960047E89800B7E81800721
:10564000E0640270027E8012566DEEF9AA08AB0982
:10565000123951EF601485188285198312673C60F6
:10566000098518828519831271790255C0851882BF
:10567000851983E0FCA3E0FD220229EE74F21224D6
:105680005BEAFEEBFF750800750900126806F50A73
:10569000E439F50B1244A3EA650A7003EB650B705D
:1056A00012124B57E914F50879017AED7B18124B69
:1056B000518003750980126B3EF50C780C122A4A52
:1056C000750CED750D18780C122A467808122A4AC6
:1056D000780A122A46E509F5087808122A4A12655E
:1056E00065126B41F97A057B801239577407027B8A
:1056F000AB74F612245BE9FF7E0080308A828B83D4
:105700001276EDF8E4C8F9E50828E439F509EE2544
:10571000E0F8E433F9EC28F582ED39F583E508F09B
:10572000A3E509F0EA2402FA50010B0EEEC39F40F4
:10573000CB0255C574E812245B74FE122AED8A1060
:105740008B11750F00851882851983E4F0A3F0F59D
:1057500016F5171263C535111278BD127D1EFA8E2B
:10576000828F83A3A3A3E0F9EAF508E439F509AA37
:105770000AAB0B12453FE96401702B12753E122AE9
:105780004AE4F508F5097808122A467808122A4AE8
:10579000780A122A467508807808122A4A125B0C89
:1057A000122A59025AF5AA0AAB0B12453FE9704179
:1057B000901825E0650A7004A3E0650B6033901A29
:1057C000D2E06402702812753E122A4AE4F508F508
:1057D000097808122A467808122A4A780A122A46B4
:1057E0007508807808122A4A125B0C122A59025A4C
:1057F000F58E828F83A3A3A3A3E0F50BEE2405FE11
:1058000050010FE50B602A127C02851882851983EE
:10581000EAF0A3EB126B5BE849601612566DEEFAE4
:10582000EFFBA90B1238378A0C8B0DAE0CAF0D8035
:1058300003750B00127C18601A127C028A168B17F3
:10584000EA4B600FAC16AD17EEFAEFFBA90A12385F
:10585000378003750A009004D180508E828F83A315
:10586000A3A3A3A3A3A3A3E4F0A3F0EEFAEFFB8505
:105870001482851583A3A3E0F81264F6F912338D20
:10588000851282851383E0C0E0A80F74ED28F582AD
:10589000E43418F583D0E0F0050FA2005007AA12F7
:1058A000AB13123429851482851583E0F514A3E027
:1058B000F515E51445157003025A73851482851594
:1058C000831264F960DF851482851583A3A3A3A3E3
:1058D000A3A3A3A3E0A2E050CC851482851583A3E3
:1058E000A3A3A312673C851482851583A3A3601E1E
:1058F0001264FBFA7901851482851583A3A3A3A3FF
:10590000125AFF124BBC8A128B13D2008010125A0B
:10591000FFA3A3A3A3E0F512A3E0F513C200E512D1
:105920004513700302589A851282851383A3E0659C
:10593000087004A3E06509600F74FF6508700474C3
:10594000FF6509600302589A851282851383A3A319
:10595000A3A3A3A3A3122871851282851383A3A3F3
:10596000A3A3A3A3E0FC7402122CFF126576A90B7B
:1059700012380D7402122A59E97038851282851383
:1059800083A3A3A3A3A3A3A3A3A3A31228718512F4
:1059900082851383A3A3A3A3A3A3A3A3A3E0FCAA29
:1059A00016AB17A90A12380D7402122A59E97003AE
:1059B00002589AE50A250BC333240AFA7B001233F6
:1059C000818A0C8B0DAE0CAF0DEA4F70030258802C
:1059D0008A828B8374D2126D348A828B83A3A31242
:1059E00070BEA3A3A3E50B127D2FE50B6033EA2461
:1059F0000AFAE43FFB8E828F83125CC88518828589
:105A00001983E0F50CA3E0F50D750E00780C122A51
:105A100042AC0BEC2CFCE433FD127D18122A5980A9
:105A20000D8A828B83A3A3A3A3A3E4F0A3F0E50ACA
:105A3000700302585BA80BE828F8E433F9EE28F865
:105A4000EF39F9E8240AFAE439FB8E828F83A3A3A5
:105A5000A3125CC885160C85170D750E00780C1204
:105A60002A42AC0AEC2CFCE433FD127D18122A59B0
:105A700002586BE50F602512753E122A4A7508ED33
:105A80007509187808122A46E50FF5087808122AD1
:105A90004A901825122871750800802DE510240BF6
:105AA000F582E43511F583E0702A12753E122A4A18
:105AB0007508ED7509187808122A467508007808E7
:105AC000122A4A9018251228717808122A4A125B65
:105AD0000C122A5985188285198312673C60098542
:105AE0001882851983127179E51645176007AA1681
:105AF000AB171234297402122A597F100226E912B8
:105B00005B0322E0F8A3E0F583888222E5102402FB
:105B1000FCE43511FDE5101264F03511F583E0F970
:105B20007A067B8012395774072274F412245B744E
:105B3000F4122AED8A088B09ECFEEDFF740B122C8F
:105B4000FF7403F0122AAF12353712668A740312FB
:105B50002AAF123531E9600A125C5E6010E0640120
:105B6000600B8518828519837484025C258E828F70
:105B700083A3A3A3A3A3A3A3A3E06013F4601012C1
:105B80005C5E7016EE2414126B416003F4700B859A
:105B900018828519837482025C251278B1E0642131
:105BA0007002A3E07055851882851983748C126287
:105BB00094E0F50A780A122A4A125C6F1240EF74D8
:105BC00001122A59E9705F851882851983E4F01261
:105BD0003741125C5E704F7401122AB7EE240BFA43
:105BE000E43FFB12410DE9703D7D007C007900EE41
:105BF000240BFAE43FFB12390F802BEE2414126BB6
:105C000041F50A780A122A4A125C6F1240F57401B3
:105C1000122A59E98518828519837007E4F0123732
:105C20004180037488F01274C4F50A780A122A4A73
:105C30007401122AA7880A890B780A122A46E508F5
:105C4000240CF582E4350912628C4480F50B780A45
:105C5000122A4612666C122A59740C02550EEE2452
:105C600013125C67640322F582E43FF583E022EEC1
:105C7000240BFCE43FFD8E828F83A3A3A3A3A3A3E5
:105C8000A3A3A31274FB8E828F83A3A3A3A3A3A3B6
:105C9000A3A3E0F922C082C08374F3122AED851811
:105CA00082851983E4F004122CFF125CCD74031278
:105CB0002CFFAA82AB83123C9FAA18AB19123CDBC3
:105CC000740D122A5902674FA3A3A3A3A3EAF0A35A
:105CD000EBF02274F612245BEAFEEBFFEA241312C7
:105CE0006B41F8A3E0125D1AF890186BE058F508C4
:105CF000A3E059F509E5084509601C7808122A4611
:105D0000901825122871126B3EFD7C001267F1126B
:105D100039637404122A590255C58882F583125DCD
:105D20002222E0FAA3E0F9EA2274EA12245B74DB8F
:105D3000122AED8A148B15751200751300750A006E
:105D40001263C53515F5831264FBF50EAC18AD1959
:105D50007A007B00799C123E19901AD2E0600464AC
:105D60000170147A047900123D05EAF50A8518825B
:105D7000851983E02A80088518828519837401F0CB
:105D8000E0F8E50EC3984003025F7BE0C3950EF593
:105D900009C394044003750903E50975F01AA4FAD0
:105DA000ABF01234238A128B13EA4B7003025F7E2E
:105DB000750B00AE12AF13850E08025E437C087DA2
:105DC0000079FFEE240AFAE43FFB123369850C8266
:105DD000850D83A3A3A3A3E0702D850C82850D837D
:105DE00012673C70091276C2126022E48010125FC2
:105DF000FFF0901C98E014C0E0125FE6D0E0F012D3
:105E00005FEA1260318032901C98E004C0E0125FBB
:105E1000E6D0E012605EC39403EE4003025EC4125B
:105E200077BB740212605E64017003025ED1EE24DF
:105E3000151260021260137401F0EE241AFE500174
:105E40000F050BE50BC395094003025F30E508C35E
:105E5000950A4003025EDAAA087B00123D478A0CCD
:105E60008B0D0508901C85126044850C82850D837E
:105E700012600BF0A3E9126036125FE674FF126045
:105E800063A3A3A3A3A3A3E0C0E0125FD4D0E0F078
:105E90007401122CFFE4F0850C82850D8312627769
:105EA0007402122CFFE81277177401122AAF123C09
:105EB000C9E964016003025DBD7404122CFF125F26
:105EC000F0025DCD12600012605E64036003025E4A
:105ED0002EEE24151276C5025E34E50AC3950E40F7
:105EE000057508008051E50EC3950AF5088048EE57
:105EF00024151276C5126031F0901C98E014C0E0B1
:105F0000125FE6D0E0126036741D122CFFE0C0E094
:105F1000125FD4D0E0F0125FDE12673A700512769D
:105F2000C28003125FFFF0EE241AFE50010F050B32
:105F3000E50BC395095047740E122AB7AA087B00D7
:105F40007987123E1905087418122CFF12604474E8
:105F500010122CFF125FF0740E122CFF12600B1245
:105F60007717901AD2E0600464017083125FEA121E
:105F70006013740312602274FF808A750900750A29
:105F800000780A122A4A7812122A467809122A4AF6
:105F9000E50EF5097809122A4A7405122CFFE0FD76
:105FA0007C00E5141264E73515FBE5141264EC354A
:105FB00015F583E0F912399F7405122A59E5124547
:105FC000136007AA12AB131234297425122A597FC1
:105FD0000E0226E9EE2419F582E43FF58322EE2431
:105FE00012F582E43F2212602722127742740222C5
:105FF000AC82AD83EE240AFAE43FFB12353722EE81
:106000002414F582E43FF583740122127724127779
:1060100038E82212601722F0EE2416F582E43FF5EC
:106020008322F012602722EE2418F582E43FF583E4
:1060300022126017E422F0EE2417F582E43FF58384
:106040007402F0221277248E828F83E8F0A3E9F0A5
:106050007C997D1CEE1264E73FFB123537221260FB
:1060600063E022F0850C82850D83A3A3A3A3227491
:10607000F612245B74F9122AED1260E2127DE185BA
:106080001882851983122CE88E828F83A3A3A3A381
:10609000E0C0E07404122CFFD0E0127B56F87405C7
:1060A000122CFF7401F07406122CFF7401F090188A
:1060B0002FF0901838041277D7FAA3E0FB9018302D
:1060C000125CCDE8901839F0127B79E090182EF030
:1060D000AA18AB19123DADE96003123DB374070273
:1060E00055C28A088B09127AEF35092274F21224FC
:1060F0005B74FF122AED7508007E007F001243B921
:106100008A0A8B0B12625E80050508126274E849E8
:1061100070F7901AD2E06007640160030261D41244
:10612000625E8003126274E849602D88828983125E
:106130006576901C85E06A7003A3E06B600A1262CA
:106140007B126576EA4B70DC88828983126285E077
:10615000687003A3E069607C7A167B00127AD260D3
:1061600073901C851262778A828B83E8127717906E
:106170001C7A126DCBF0124527E98E828F83A3A380
:10618000A3A3A3F0901EB5E08E828F83A3A3A3A345
:10619000A3A3F07C997D1CEE240B125FF7AA18AB29
:1061A00019794112626AE0600890182512627780BE
:1061B0000478FE79FF8E828F83A3A3A3A3A3A3A356
:1061C000E8F0A3E9126294E50AF0A3E50BF08E0A69
:1061D0008F0B0508901839E0F8E508C3985004794A
:1061E000008029E508C398F9C39406400279057830
:1061F00000800FE50A2414F582E4350B12628CF559
:106200000B08901839E0FAE8C39A40E7750900785E
:1062100009122A4A780A122A46E9F5097809122A47
:106220004A901839E0F5097809122A4AAD087C002D
:106230007A307B1890182EE0F91239997405122AD9
:1062400059901AD2E060046401700BEE4F6007EEC3
:10625000FAEFFB123429123DB37401027BAB1243F7
:10626000B98A0C8B0DA80CA90D22123B79851882D6
:106270008519832212627B12772422E82414F58286
:10628000E439F58322127724901C8522F583E0F50A
:106290000AA3E022F0EE1277BF2274F012245B749E
:1062A000FF122AED8A0A8B0B7E008E0E8E0F126370
:1062B000C5350BF5831264FBFFAC18AD197A007B72
:1062C00000799D123E19851882851983E0F8EFC385
:1062D00098400302636FE0C39FFEC3940B40027EAD
:1062E0000AEE75F007A4FAABF01264DF8A0E8B0F8A
:1062F000EA4B6079750C00801A850882850983A3B2
:10630000A3A3A3A37403F0E5082407F5085002052E
:1063100009050CE50CC39E5056AC08AD09E50C2FE1
:10632000FAE43400FB798B123E19850882850983D3
:10633000A3A3A3A3A3E014600814601314601F8038
:10634000B8850882850983A3A3A3A3A3E480B785A6
:106350000882850983A3A3A3A3A3740180A8850849
:1063600082850983A3A3A3A3A3740280997E0075E9
:1063700008007808122A4A780E122A46EEF50878A4
:1063800008122A4AEFF5087808122A4A7405122CD6
:10639000FFE0FD7C00E50A1264E7350BFBE50A121D
:1063A00064EC350BF583E0F91239A57405122A590E
:1063B000E50E450F6007AA0EAB0F123429740112C7
:1063C0002A590254ACEA127AF02274EE12245B7459
:1063D000FE122AED8A0C8B0D7510007511001263E8
:1063E000C5350DF5831264FBF50AAC18AD197A00BA
:1063F0007B0079A31240FB8518828519831262778E
:10640000C3E50A98E4995020851882851983A80A63
:10641000E0C398FEA3E09400FFC3EE9404EF940061
:1064200040617E037F00805F7E00750B00EEF97592
:1064300008007808122A4A7810122A46E9F50878E6
:1064400008122A4AE50AF5087808122A4A74051241
:106450002CFFE0FDAC0BE50C1264E7350DFBE50C01
:106460001264EC350DF583E0F91239AB7405122A8C
:1064700059E51045116007AA10AB111234297402B6
:10648000027BDCEE4F60A3EEFAEFFBEA75F015A499
:10649000FAA8F075F015EBA4281264DE8A108B11AF
:1064A000EA4B6032750B00750E00C3E50E9EE49F4B
:1064B000400302642DAC08AD09A80AE50E28FAE4F1
:1064C0003400FB79A21240FBE5082415F5085002C0
:1064D0000509050E80D4750BB5790002642FFB12F7
:1064E00034238A088B09222402FAE4221264F0225F
:1064F000240FF582E422125B05A3A3125B03E022C2
:1065000074F612245B74FF122AEDEAFEEBFF1267A9
:10651000281265768A82F583A3A3A3A3A3A3A3A3CA
:10652000E0F9123DD1E9851882851983F0750800DC
:106530007808122A4A7401122AA78808890978085B
:10654000122A467508357509807808122A461265A0
:1065500059122A5974010255C27901126565FAE48B
:106560003F12668322EE2402FCE43FFDEE240F225C
:106570008518828519831274FB2274F412245B74CB
:10658000FA122AED1260E2126696EEFAEFFB123C66
:10659000A5E9600F12668AEEFAEFFB123531E96465
:1065A000017013901AD2E070030266677401122C16
:1065B000FFE4F0A380097401122CFFEEF0A3EFF0CA
:1065C000901AD2E064027017850882850983A3A31C
:1065D000126B54E0687003A3E06960030266678E83
:1065E000828F83A3A3A3A3A3A3A3A3E0FEA2E65049
:1065F000087403122CFF7401F0EEA2E75008740433
:10660000122CFF7401F07405122CFFE4126945F09E
:10661000F50A780A122A4A7401122AA7880A890BF5
:10662000780A122A46750A34750B80780A122A46AF
:1066300012666C122A5990816C122CD01244C17AC5
:10664000007B001244CD7A007B001244C774011213
:106650002AAF123E07EEA2E7400D7401122CFF1282
:10666000673C7003124AB5740602550E7901E508BD
:106670002402FCE43509FDE508240FFAE43509128B
:10668000668322FB12390374052212449D8A0A8B09
:106690000BAC0AAD0B22F583127A60FF2274F6125E
:1066A000245B74FF122AEDEAFEEBFF901AD2E07031
:1066B00011901EBAE0700B8A828B83A3A312673CF1
:1066C00070631267281264FBF50874FF6508700395
:1066D0007508FEA908123DBFE9851882851983F067
:1066E000124203E96005A908123A71901AD2E070CB
:1066F00005A908123A71EE240B126B417027750838
:10670000007808122A4A7401122AA7880889097891
:1067100008122A467508367509807808122A46122A
:106720006559122A59026554EA12672D222413F57D
